:020000040800F2
:10000000200600209D01000825450008212E00083B
:1000100009450008F10400088D5B0008000000009D
:10002000000000000000000000000000AD450008D6
:10003000F504000800000000A9450008F14600088A
:10004000B7010008B7010008B7010008B7010008B0
:10005000B7010008B7010008B7010008B7010008A0
:10006000B7010008B7010008B7010008B701000890
:10007000B7010008B7010008B7010008B701000880
:10008000B7010008B7010008B7010008B701000870
:10009000B7010008B7010008B7010008B701000860
:1000A000B7010008B7010008B7010008B701000850
:1000B000914C0008B7010008B7010008B70100081B
:1000C000B7010008B7010008B7010008B701000830
:1000D000B7010008B15A0008C15A0008D15A0008F7
:1000E000B7010008B7010008B7010008B701000810
:1000F000B7010008B7010008B7010008B701000800
:10010000B7010008B7010008B7010008B7010008EF
:10011000B7010008B7010008B7010008B7010008DF
:10012000B7010008B7010008B7010008B7010008CF
:10013000B7010008B7010008B7010008B7010008BF
:10014000B7010008B7010008B7010008B7010008AF
:10015000B7010008B7010008B7010008B70100089F
:10016000B7010008B7010008B7010008B70100088F
:10017000B7010008B7010008B7010008000000003F
:10018000B7010008B7010008DFF80CD000F09EF9B5
:1001900000480047E95C0008200600200648804728
:1001A00006480047FEE7FEE7FEE7FEE7FEE7FEE75C
:1001B000FEE7FEE7FEE7FEE7BD470008890100080D
:1001C0002DE9F05F0546002092469B46884606468C
:1001D000814640241BE0284641464746224600F01F
:1001E00008F953465A46C01A914110D31146184691
:1001F000224600F0EFF82D1A67EB01084F46224621
:100200000120002100F0E6F817EB00094E41201E06
:10021000A4F10104DFDC484631462A464346BDE8E6
:10022000F09FD2B201E000F8012B491EFBD27047CB
:100230000022F6E710B513460A4604461946FFF7B2
:10024000F0FF204610BD2DE9FE4F81EA030404F0C3
:10025000004421F0004100944FF0000B23F00043D4
:1002600050EA01045ED052EA03045BD0C3F30A549F
:10027000C1F30A552C44A4F2F3340194A0FB0254B8
:10028000C1F3130141F48011C3F3130343F480134A
:1002900001FB024400FB034E840A970A44EA81549E
:1002A00047EA8357A4FB076802958D0A05FB07857B
:1002B0004FEA932C04FB0C542705029D4FEA065885
:1002C00047EA1637B5EB08056EEB070C870E920E62
:1002D00047EA811742EA8312A7FB0201B6EB0B0142
:1002E00064EB00042B0D43EA0C335E1844EB1C5006
:1002F000DA465146E7FB0201C5F313044FEA0B331C
:1003000043EA14534FEA0432019C43EA0603A4F182
:100310000C040294009CCDE900B400F089F803B00D
:10032000BDE8F08F00200146F9E730B5041E71F1F9
:10033000000404DB4FF00044404264EB0101141E52
:1003400073F1000405DB1C464FF00043524263EB9F
:100350000403101A8B4101D3012030BD002030BDB1
:1003600030B5041E71F1000404DB4FF0004440423C
:1003700064EB0101141E73F1000405DB1C464FF011
:100380000043524263EB0403801A994101D20120D9
:1003900030BD002030BD70B5C1F30A5201F00045F8
:1003A0000024C1F3130140F2FF3341F480119A425B
:1003B00001DA002070BD40F233439A42A2F2334288
:1003C00003DC524200F015F800E090402C43F1D0DD
:1003D000404270BD202A04DB203A00FA02F10020DE
:1003E00070479140C2F1200320FA03F31943904073
:1003F0007047202A04DB203A21FA02F000217047DE
:1004000021FA02F3D040C2F120029140084319467C
:10041000704710B5141E73F1000408DA401C41F156
:10042000000192185B411A4301D120F0010010BD78
:100430002DE9F04D92469B4611B1B1FA81F202E0EE
:10044000B0FA80F220329046FFF7C4FF04460F4610
:1004500040EA0A0041EA0B0153465A46084313D0CA
:10046000114653EA010019D0C8F140025046FFF787
:10047000C0FF05460E46504659464246FFF7AAFFC2
:10048000084305D0012004E020463946BDE8F08D40
:100490000020054346EAE0762C4337430A9863057B
:1004A000E40AA0EB08000022FD0A44EA47540A309F
:1004B00002D500200146E9E7010510196941DDE98F
:1004C000084500196941BDE8F04DA2E7064C074D0B
:1004D00006E0E06840F0010394E807009847103414
:1004E000AC42F6D3FFF754FED8750008F875000843
:1004F000FFE7FEE77047000070470000B0B589B025
:100500009C4696460C460546089007910692059330
:10051000002004900598B0F5804FCDF80CC0CDF8C0
:1005200008E00194009522D1FFE70898069950F859
:100530002100049004980021CCF6F071084004904A
:100540000798016842688368D0F80CC041EA02113C
:1005500041EA032141EA0C418069084304990843B8
:10056000049004980899069A41F8220006E0089839
:1005700006996FF0704240F82120FFE7002009B093
:10058000B0BD000010B585B00A4603460490039143
:100590000020029004980399096850F82100029005
:1005A00002988021CFF6F0710840029003984168CC
:1005B000D0F808C0D0F80CE0046941EA0C0141EA27
:1005C0000E012143D0F814C041EA0C01D0F818C044
:1005D00041EA0C01D0F81CC041EA0C01D0F820C05F
:1005E00041EA0C01D0F824C041EA0C01D0F828C03F
:1005F00041EA0C01D0F82CC041EA0C01D0F83CC013
:1006000041EA0C01006B08430299084302900398E9
:10061000806808280192009305D1FFE7029840F016
:1006200040000290FFE702980499039A126841F88B
:100630002200002005B010BD70B587B013468C466F
:100640008646069005910492002003900699049A2C
:1006500001EB820149680391039901F04041039144
:1006600005990A684C688D68CE6842EA041242EA2D
:10067000052242EA06420C690025CFF6F07505EB2B
:10068000045422434C69FE3442EA046289691143EE
:10069000039A114303910399069A049C02EB840286
:1006A00051600293CDF804C0CDF800E007B070BDF2
:1006B00080B588B00146ADF81E0040F20410C2F2C9
:1006C00000000690059101F0B9FA069904900846D9
:1006D00001F0FCF906990390084601F08FFABDF885
:1006E0001E104CF2513E7145029001DBFFE728E0FD
:1006F00040F20410C2F2000000680021416240F2A2
:100700000040C4F202004FF4004201911146019AE8
:1007100000F0A8FAFFE740F20410C2F200000068FF
:10072000406ABDF81E10884201D2FFE7F3E740F2AD
:100730000040C4F202004FF40041012200F092FA9E
:10074000FFE708B080BD000083B00146019001982A
:1007500090F835000228009107D0FFE7019880212A
:10076000416501208DF80B000EE00198052180F80D
:10077000351001980068016821F001010160FFE770
:1007800000208DF80B00FFE79DF80B0003B07047C9
:1007900080B584B001460390009100F085FA029084
:1007A0000398019001980130002809D0FFE740F23A
:1007B0000800C2F200000078019908440190FFE7A8
:1007C000FFE700F071FADDF808E0A0EB0E00DDF8BD
:1007D00004E0704501D2FFE7F3E704B080BD0000FC
:1007E00080B58CB000200B900A900990089007907B
:1007F00040F21000C2F200000068002801D0FFE7BC
:1008000045E040F21000C2F2000001210160FFE764
:100810000020069043F63800C4F20200016841F05F
:1008200001010160006800F0010006900698059043
:10083000FFE74FF680700790022008900021099191
:1008400003220A920C230B9341F2000CC4F2020C17
:100850000DF11C0E049060460391714602920193C3
:10086000CDF800E000F016F84EF2B370079004984F
:10087000089003990991029A0A92019B0B9340F602
:100880000040C4F20200009900F004F8FFE70CB049
:1008900080BD000091B00A46034610900F910020E1
:1008A0000D900C900B900E9009920893FFE70E9814
:1008B0000F2800F2D481FFE70E98012101FA00F021
:1008C0000D900F9800680D9908400C900C980D99A8
:1008D000884240F0BF81FFE70F984068022805D0AA
:1008E000FFE70F984068122826D1FFE710980E996D
:1008F0006FF0030202EA51010844006A0B900E985F
:1009000000F0070080000F2101FA00F00B9921EAA6
:1009100000000B900F9800690E9901F00701890003
:1009200088400B9908430B900B9810990E9B02EA94
:10093000530211440862FFE7109800680B900E986C
:100940004000032101FA00F00B9921EA00000B900E
:100950000F98406800F003000E99490088400B99F9
:1009600008430B900B98109908600F984068012875
:100970000FD0FFE70F98406802280AD0FFE70F98D2
:100980004068112805D0FFE70F98406812282FD142
:10099000FFE7109880680B900E984000032101FA41
:1009A00000F00B9921EA00000B900F98C0680E9997
:1009B000490088400B9908430B900B981099886068
:1009C000109840680B900E98012101FA00F00B99E5
:1009D00021EA00000B900F984068C0F300100E99B8
:1009E00088400B9908430B900B9810994860FFE7DB
:1009F0001098C0680B900E984000032101FA00F097
:100A00000B9921EA00000B900F9880680E9949001D
:100A100088400B9908430B900B981099C8600F9869
:100A20004068C000002840F11481FFE7FFE7002084
:100A30000A9043F64400C4F20200016841F4804188
:100A40000160006800F480400A900A980790FFE770
:100A50000E9820F0030043F60801C4F2010140584B
:100A60000B900E9800F0030080000F2101FA00F0B7
:100A70000B9921EA00000B9010980021C4F20201AA
:100A8000884203D1FFE7002006905EE0109840F214
:100A90000041C4F20201884203D1FFE70120059022
:100AA00050E0109840F60001C4F20201884203D1E0
:100AB000FFE70220049042E0109840F60041C4F2A3
:100AC0000201884203D1FFE70320039034E010982D
:100AD00041F20001C4F20201884203D1FFE7042081
:100AE000029026E0109841F20041C4F202018842CF
:100AF00003D1FFE70520019018E0109841F60001AE
:100B0000C4F20201884203D1FFE7062000900AE008
:100B1000109841F60041C4F202010822884208BF41
:100B200007220092FFE700980190FFE701980290EA
:100B3000FFE702980390FFE703980490FFE704980B
:100B40000590FFE705980690FFE70698C0B20E995A
:100B500001F00301890088400B9908430B900B9822
:100B60000E9921F0030143F60802C4F201028850F5
:100B700043F60040C4F2010000680B900C980B99FA
:100B800021EA00000B900F984068C003002805D5AB
:100B9000FFE70C980B9908430B90FFE70B9843F67F
:100BA0000041C4F20101086043F60440C4F20100B0
:100BB00000680B900C980B9921EA00000B900F989D
:100BC00040688003002805D5FFE70C980B9908437F
:100BD0000B90FFE70B9843F60441C4F20101086053
:100BE00043F60840C4F2010000680B900C980B9982
:100BF00021EA00000B900F984068C002002805D53C
:100C0000FFE70C980B9908430B90FFE70B9843F60E
:100C10000841C4F20101086043F60C40C4F201002F
:100C200000680B900C980B9921EA00000B900F982C
:100C300040688002002805D5FFE70C980B9908430F
:100C40000B90FFE70B9843F60C41C4F201010860DA
:100C5000FFE7FFE7FFE70E9801300E9027E611B09F
:100C60007047000080B585B013468C4686460490D8
:100C7000ADF80E108DF80D209DF80D0000280293A0
:100C8000CDF804C0CDF800E005D0FFE7BDF80E00B8
:100C90000499886105E0BDF80E000004049988619C
:100CA000FFE705B080BD000040F21820C2F200004E
:100CB0000068704740F20800C2F20000007840F27D
:100CC0001821C2F200010A68104408607047000051
:100CD00080B582B043F60040C4F20200016841F4DE
:100CE00000710160016841F480610160016841F4B4
:100CF00080710160032000F0A1F80020019000F055
:100D000007F8009000F040F8019802B080BD0000A4
:100D100080B584B00146029040F20400C2F20000A7
:100D2000006840F20802C2F2000212784FF47A73AF
:100D3000B3FBF2F2B0FBF2F0019100F003FE0028E9
:100D400004D0FFE701208DF80F0018E002980F286B
:100D50000DD8FFE702994FF0FF30002200F048F86D
:100D6000029840F20C01C2F20001086003E0012089
:100D70008DF80F0003E000208DF80F00FFE79DF8CD
:100D80000F0004B080BD000084B0FFE70020039096
:100D900043F64400C4F20200016841F4804101605E
:100DA000006800F48040039003980190FFE7FFE79C
:100DB0000020029043F64000C4F20200016841F0B6
:100DC00080510160006800F080500290029800900D
:100DD000FFE704B07047000080B582B001468DF88F
:100DE00007009DF90700009104F012FF02B080BDDA
:100DF00080B58AB013468C4686468DF82700089148
:100E00000792002006900593CDF810C0CDF80CE0B5
:100E100004F01AFF06909DF927000699089A079B8F
:100E20000290084611461A4603F07EFB0299019093
:100E30000846019904F010FF0AB080BD80B582B069
:100E4000014601900198009104F02CFF02B080BD92
:100E500080B588B00A46034606900591069800289A
:100E60000392029304D1FFE701208DF81F0025E1D2
:100E7000059843F60041C4F20201096801F00F0130
:100E8000884212D9FFE7059843F60041C4F20201F7
:100E90000870086800F00F000599884204D0FFE749
:100EA00001208DF81F0009E1FFE706980068800720
:100EB00000282AD5FFE7069800684007002809D5D2
:100EC000FFE743F60800C4F20200016841F4E05174
:100ED0000160FFE7069800680007002809D5FFE7D2
:100EE00043F60800C4F20200016841F46041016069
:100EF000FFE743F60800C4F20200016821F0F001A8
:100F0000069A926811430160FFE706980068C007DF
:100F1000002870D0FFE706984068012811D1FFE74C
:100F200043F60000C4F20200006800F40030002123
:100F3000B1EB504F04D1FFE701208DF81F00BDE059
:100F40002CE006984068022805D0FFE70698406824
:100F5000032811D1FFE743F60000C4F20200006845
:100F600000F000700021B1EB506F04D1FFE70120C9
:100F70008DF81F00A2E010E043F60000C4F202006A
:100F8000006800F002000021B1EB500F04D1FFE730
:100F900001208DF81F0091E0FFE7FFE743F608000E
:100FA000C4F20200016821F00301069A526811435D
:100FB0000160FFF779FE0490FFE743F60800C4F2F2
:100FC0000200006800F00C0006994968B0EB810F40
:100FD00010D0FFE7FFF768FEDDF810E0A0EB0E0091
:100FE00041F2893E704504D3FFE703208DF81F00CE
:100FF00064E0E2E7FFE7059843F60041C4F202012E
:10100000096801F00F01884212D2FFE7059843F604
:101010000041C4F202010870086800F00F00059951
:10102000884204D0FFE701208DF81F0046E0FFE76B
:1010300006980068400700280CD5FFE743F6080033
:10104000C4F20200016821F4E051069AD26811430B
:101050000160FFE706980068000700280DD5FFE74C
:1010600043F60800C4F20200016821F46041069AC8
:10107000126941EAC2010160FFE700F053F843F64C
:10108000080EC4F2020EDEF800E05FFA8EFE4FEAB0
:101090001E1E45F6DE51C0F6000111F80E10C840C4
:1010A00040F20401C2F20001086000200190FFF745
:1010B0002FFE01998DF81F100090FFE79DF81F008B
:1010C00008B080BD40F20400C2F200000068704722
:1010D00080B5FFF7F7FF43F6080EC4F2020EDEF804
:1010E00000E0CEF3822E45F6EE51C0F6000111F875
:1010F0000E10C84080BD000080B5FFF7E3FF43F647
:10110000080EC4F2020EDEF800E01FFA8EFE4FEA6F
:101110005E3E45F6EE51C0F6000111F80E10C840D3
:1011200080BD000080B586B000200590049003903B
:10113000029043F60800C4F20200006800F00C00C0
:1011400001460028019108D0FFE7019804280AD041
:10115000FFE7019808280CD04FE042F20040C0F2AF
:10116000F40002904FE047F64000C0F27D1002907C
:1011700049E043F60400C4F20200016801F03F01B7
:10118000059100684002002813D5FFE743F60400EC
:10119000C4F202000068C0F3881047F64001C0F2B4
:1011A0007D11A0FB0101059A0023FFF709F80490C7
:1011B00012E043F60400C4F202000068C0F3881095
:1011C00042F20041C0F2F401A0FB0101059A0023A4
:1011D000FEF7F6FF0490FFE743F60400C4F20200B6
:1011E000006800F44030022101EBD03003900498F5
:1011F0000399B0FBF1F0029005E042F20040C0F22A
:10120000F4000290FFE7029806B080BD80B588B078
:101210000146069006980028029104D1FFE70120BC
:101220008DF81F0027E306980068C007002800F02B
:10123000AB80FFE743F60800C4F20200006800F04C
:101240000C00042813D0FFE743F60800C4F20200A4
:10125000006800F00C0008281FD1FFE743F60400E7
:10126000C4F2020000684002002816D5FFE743F6EA
:101270000000C4F20200006800F400300021B1EB6D
:10128000504F09D0FFE706984068002804D1FFE7D7
:1012900001208DF81F00EEE275E0FFE70698406838
:1012A000B0F5803F09D1FFE743F60000C4F2020029
:1012B000016841F48031016020E006984068B0F593
:1012C000A02F0DD1FFE743F60000C4F20200016831
:1012D00041F480210160016841F4803101600CE03B
:1012E00043F60000C4F20200016821F4803101607D
:1012F000016821F480210160FFE7FFE7FFE706981E
:10130000406800281FD0FFE7FFF7CEFC0590FFE7FD
:1013100043F60000C4F20200006800F4003000212F
:10132000B1EB504F0ED1FFE7FFF7BEFCDDF814E044
:10133000A0EB0E00652804D3FFE703208DF81F0003
:1013400099E2E5E71EE0FFF7AFFC0590FFE743F603
:101350000000C4F20200006800F400300021B1EB8C
:10136000504F0ED0FFE7FFF79FFCDDF814E0A0EB35
:101370000E00652804D3FFE703208DF81F007AE2F2
:10138000E5E7FFE7FFE7FFE706980068800700282A
:1013900040F19B80FFE743F60800C4F202000068BA
:1013A00010F00C0F13D0FFE743F60800C4F2020060
:1013B000006800F00C0008282CD1FFE743F6040079
:1013C000C4F2020000684002002823D4FFE743F67D
:1013D0000000C4F20200006800F002000021B1EB3E
:1013E000500F09D0FFE70698C068012804D0FFE736
:1013F00001208DF81F003EE243F60000C4F2020017
:10140000016821F0F801069A126941EAC2010160FF
:10141000FFE759E00698C068002830D0FFE70020B9
:10142000C4F2472001210160FFF73EFC0590FFE771
:1014300043F60000C4F20200006800F00200002140
:10144000B1EB500F0ED1FFE7FFF72EFCDDF814E0F3
:10145000A0EB0E00032804D3FFE703208DF81F0044
:1014600009E2E5E743F60000C4F20200016821F05A
:10147000F801069A126941EAC201016023E00020E6
:10148000C4F2472000210160FFF70EFC0590FFE742
:1014900043F60000C4F20200006800F002000021E0
:1014A000B1EB500F0ED0FFE7FFF7FEFBDDF814E0C5
:1014B000A0EB0E00032804D3FFE703208DF81F00E4
:1014C000D9E1E5E7FFE7FFE7FFE7069800680007D7
:1014D000002850D5FFE706984069002825D0FFE78F
:1014E00040F68060C4F2472001210160FFF7DCFB79
:1014F0000590FFE743F67400C4F20200006800F0B4
:1015000002000021B1EB500F0ED1FFE7FFF7CCFB3B
:10151000DDF814E0A0EB0E00032804D3FFE703205E
:101520008DF81F00A7E1E5E724E040F68060C4F2F3
:10153000472000210160FFF7B7FB0590FFE743F666
:101540007400C4F20200006800F002000021B1EB58
:10155000500F0ED0FFE7FFF7A7FBDDF814E0A0EB7C
:101560000E00032804D3FFE703208DF81F0082E15B
:10157000E5E7FFE7FFE7069800684007002840F12D
:10158000D680FFE700208DF8130043F64000C4F238
:1015900002000068C000002816D4FFE7FFE7002023
:1015A000039043F64000C4F20200016841F080510C
:1015B0000160006800F08050039003980190FFE7FD
:1015C00001208DF81300FFE747F20000C4F200008D
:1015D0000068C005002824D4FFE747F20000C4F2E9
:1015E0000000016841F480710160FFF75DFB059028
:1015F000FFE747F20000C4F200000068C0050028C1
:101600000ED4FFE7FFF750FBDDF814E0A0EB0E006F
:10161000032804D3FFE703208DF81F002BE1E8E740
:10162000FFE7FFE706988068012809D1FFE743F646
:101630007000C4F20200016841F0010101601FE086
:101640000698806805280DD1FFE743F67000C4F2C4
:101650000200016841F004010160016841F00101EC
:1016600001600CE043F67000C4F20200016821F052
:1016700001010160016821F004010160FFE7FFE75B
:10168000FFE706988068002821D0FFE7FFF70CFBF2
:101690000590FFE743F67000C4F20200006800F016
:1016A00002000021B1EB500F10D1FFE7FFF7FCFA69
:1016B000DDF814E0A0EB0E0041F2893E704504D342
:1016C000FFE703208DF81F00D5E0E3E720E0FFF7F8
:1016D000EBFA0590FFE743F67000C4F202000068E1
:1016E00000F002000021B1EB500F10D0FFE7FFF730
:1016F000DBFADDF814E0A0EB0E0041F2893E704504
:1017000004D3FFE703208DF81F00B4E0E3E7FFE711
:101710009DF81300012809D1FFE743F64000C4F209
:101720000200016821F080510160FFE7FFE70698A1
:101730008069002800F09B80FFE743F60800C4F2B0
:101740000200006800F00C00082800F08B80FFE722
:1017500006988069022860D1FFE76020C4F2472024
:1017600000210160FFF7A0FA0590FFE743F60000B3
:10177000C4F20200006800F000700021B1EB506F6D
:101780000ED0FFE7FFF790FADDF814E0A0EB0E00B3
:10179000032804D3FFE703208DF81F006BE0E5E783
:1017A0000698C169026A436AD0F828C0114341EA29
:1017B00083114FEACC324FF6FF739A43A2F5803281
:1017C0001143C06A41EA006043F60401C4F2020119
:1017D00008606020C4F2472001210160FFF764FA2D
:1017E0000590FFE743F60000C4F20200006800F035
:1017F00000700021B1EB506F0ED1FFE7FFF754FAF4
:10180000DDF814E0A0EB0E00032804D3FFE703206B
:101810008DF81F002FE0E5E723E06020C4F24720A9
:1018200000210160FFF740FA0590FFE743F6000052
:10183000C4F20200006800F000700021B1EB506FAC
:101840000ED0FFE7FFF730FADDF814E0A0EB0E0052
:10185000032804D3FFE703208DF81F000BE0E5E722
:10186000FFE703E001208DF81F0004E0FFE7002000
:101870008DF81F00FFE79DF81F0008B080BD000035
:1018800080B58EB013468C4686460C900B910A921A
:101890000C9800280993CDF820C0CDF81CE004D1A5
:1018A000FFE701208DF837003DE00C9890F84900E3
:1018B000002808D1FFE70C98002180F848100C9808
:1018C00000F036F8FFE70C9850F8081B0690084621
:1018D0000699FEF757FE0C99DDF82CE00A68896836
:1018E0000590104604917146049AFEF7A5FE0C99E6
:1018F0000A9AD1F804E08B68096B03907046029154
:1019000011461A46029BFEF7F9FD0C990A68896890
:1019100052F8213043F0010342F8213000218DF8C4
:1019200037100190FFE79DF837000EB080BD000032
:1019300080B582B0014601900091FEF751FF02B0E0
:1019400080BD000080B582B00146019001980091F1
:1019500002F0A0FE02B080BD82B00146019000916D
:1019600002B0704782B001460190009102B070470A
:1019700086B00A460346049003910020029001922B
:101980000093FFE7049890F83C00012804D1FFE79A
:1019900002208DF8170044E00498012180F83C10E3
:1019A000FFE7FFE7029820F0FF000399C9680843AA
:1019B0000290029820F440700399896808430290CD
:1019C000029820F4806003994968084302900298C5
:1019D00020F400600399096808430290029820F4FB
:1019E00080500399096908430290029820F400503E
:1019F0000399496908430290029820F480400399B2
:101A0000C969084302900298049909684864FFE78D
:101A10000498002180F83C10FFE700208DF81700A3
:101A2000FFE79DF8170006B07047000087B00A4630
:101A300003460590049101920093FFE7059890F802
:101A40003C00012804D1FFE702208DF81B0039E09B
:101A50000598012180F83C10FFE7FFE70598022177
:101A600080F83D100598006840680390059800686C
:101A700080680290039820F070000390049800683A
:101A8000039908430390029820F080000290049884
:101A900040680299084302900398059909684860D4
:101AA00002980599096888600598012180F83D1021
:101AB000FFE70598002180F83C10FFE700208DF833
:101AC0001B00FFE79DF81B0007B0704780B584B08E
:101AD0000146029002980028019104D1FFE70120FD
:101AE0008DF80F0021E0029890F83D00002808D101
:101AF000FFE70298002180F83C10029800F01AF8E5
:101B0000FFE70298022180F83D10029850F8041B6C
:101B100000900846009903F0C3F80298012180F86C
:101B20003D1000208DF80F00FFE79DF80F0004B076
:101B300080BD000080B58AB0014609900998006810
:101B40000022C4F201029042059113D1FFE7FFE7A2
:101B50000020089043F64400C4F20200016841F0FE
:101B600001010160006800F00100089008980490ED
:101B7000FFE740E009980068B0F1804F1DD1FFE712
:101B8000FFE70020079043F64000C4F2020001681E
:101B900041F001010160006800F001000790079822
:101BA0000390FFE71C20002102900191019AFFF7AA
:101BB0001FF90298FFF710F91CE00998006840F639
:101BC0000041C4F20001884213D1FFE7FFE7002083
:101BD000069043F64000C4F20200016841F008019B
:101BE0000160006800F00800069006980090FFE78A
:101BF000FFE7FFE7FFE70AB080BD000083B00146C2
:101C000002900298022280F83D20029800688068C5
:101C100000F00700019001980628009107D0FFE727
:101C200002980068016841F001010160FFE7029835
:101C3000012180F83D10002003B0704782B00146BA
:101C400001900198022280F83D200091FFE7019861
:101C50000068006A41F21111084210D1FFE70198B3
:101C60000068006A40F24441084207D1FFE701984A
:101C70000068016821F001010160FFE7FFE7FFE76D
:101C80000198012180F83D10002002B0704700004B
:101C900082B00146019001980068C26822F00102FA
:101CA000C2600091FFE701980068006A41F21111DB
:101CB000084210D1FFE701980068006A40F24441F1
:101CC000084207D1FFE701980068016821F001018F
:101CD0000160FFE7FFE7FFE7002002B07047000068
:101CE00080B58CB00A4603460A9009910792069384
:101CF000FFE70A9890F83C00012804D1FFE7022092
:101D00008DF82F00B7E00A98012180F83C10FFE71A
:101D1000FFE70A98022180F83D100A980068806861
:101D20000890089820F077000890089820F47F40E9
:101D3000089008980A99096888600998006800283E
:101D4000059000F08280FFE7059810287DD0FFE71E
:101D50000598202879D0FFE70598302875D0FFE74F
:101D60000598402861D0FFE7059850283DD0FFE74F
:101D70000598602849D0FFE7059870280BD0FFE749
:101D80000598B0F5805F05D0FFE70598B0F5005FD6
:101D900019D061E061E00A98006809994A688B6887
:101DA000C96804911946049B03F072F80A98006808
:101DB00080680890089840F07700089008980A9981
:101DC0000968886049E00A98006809994A688B6840
:101DD000C96803911946039B03F05AF80A980068F2
:101DE000816841F48041816037E00A980068099970
:101DF0004A68C96802911146029A03F055FA0A9896
:101E00000068502103F06AF827E00A9800680999F1
:101E10004A68C96801911146019A03F077FA0A9855
:101E20000068602103F05AF817E00A9800680999E1
:101E30004A68C96800911146009A03F035FA0A9879
:101E40000068402103F04AF807E00A980068099901
:101E5000096803F043F800E0FFE70A98012180F8E1
:101E60003D10FFE70A98002180F83C10FFE70020B2
:101E70008DF82F00FFE79DF82F000CB080BD00000B
:101E800082B001460190009102B0704780B582B0E7
:101E90000146019001980068006900F002000022EC
:101EA000B2EB500F009129D0FFE701980068C0689D
:101EB00000F002000021B1EB500F1ED0FFE70198A7
:101EC00000686FF00201016101980121017701981A
:101ED000006880698007002804D0FFE70198FFF7B9
:101EE000CFFF06E0019800F0D3F9019800F0FAFA6C
:101EF000FFE7019800210177FFE7FFE701980068FD
:101F0000006900F004000021B1EB900F29D0FFE739
:101F100001980068C06800F004000021B1EB900F48
:101F20001ED0FFE7019800686FF00401016101987D
:101F30000221017701980068806910F4407F04D085
:101F4000FFE70198FFF79CFF06E0019800F0A0F979
:101F5000019800F0C7FAFFE7019800210177FFE739
:101F6000FFE701980068006900F008000021B1EB6C
:101F7000D00F29D0FFE701980068C06800F0080082
:101F80000021B1EBD00F1ED0FFE7019800686FF081
:101F90000801016101980421017701980068C06976
:101FA0008007002804D0FFE70198FFF769FF06E0EB
:101FB000019800F06DF9019800F094FAFFE701989C
:101FC00000210177FFE7FFE701980068006900F052
:101FD00010000021B1EB101F29D0FFE70198006825
:101FE000C06800F010000021B1EB101F1ED0FFE709
:101FF000019800686FF010010161019808210177D4
:1020000001980068C06910F4407F04D0FFE7019890
:10201000FFF736FF06E0019800F03AF9019800F06A
:1020200061FAFFE7019800210177FFE7FFE70198D8
:1020300000680069C007002811D0FFE70198006818
:10204000C068C007002809D0FFE7019800686FF05A
:1020500001010161019800F0FBFAFFE7FFE7019839
:1020600000680069C0B20021B1EBD01F13D0FFE7B8
:1020700001980068C068C0B20021B1EBD01F09D040
:10208000FFE7019800686FF0800101610198FFF798
:1020900063FCFFE7FFE701980068006900F040007B
:1020A0000021B1EB901F14D0FFE701980068C068D1
:1020B00000F040000021B1EB901F09D0FFE701982C
:1020C00000686FF040010161019800F015FBFFE727
:1020D000FFE701980068006900F020000021B1EBE3
:1020E000501F14D0FFE701980068C06800F020007E
:1020F0000021B1EB501F09D0FFE7019800686FF095
:10210000200101610198FFF72DFCFFE7FFE702B016
:1021100080BD000080B58CB001460B9000200A9075
:1021200009900890079006900B9800680022C4F26E
:1021300001029042039123D1FFE7FFE700200590C1
:1021400043F63000C4F20200016841F00101016071
:10215000006800F00100059005980290FFE74FF439
:1021600080700690022007900020089009900120BE
:102170000A900020C4F2020006A9FEF78BFB28E0BB
:102180000B980068B0F1804F22D1FFE7FFE70020F5
:10219000049043F63000C4F20200016841F00101EE
:1021A0000160006800F00100049004980190FFE7CE
:1021B000202006900220079000200890099001201E
:1021C0000A900020C4F2020006A9FEF763FBFFE7B5
:1021D000FFE70CB080BD000080B588B013468C4688
:1021E00086460690059104920393CDF808C0CDF879
:1021F00004E0FFE7069890F83C00012804D1FFE7CF
:1022000002208DF81F003EE00698012180F83C1066
:10221000FFE7FFE70698022180F83D1004980C289C
:10222000009021D80099DFE801F0071F1F1F0D1F44
:102230001F1F131F1F1F190006980068059902F041
:1022400067FE12E006980068059902F0DBFE0CE0DC
:1022500006980068059902F053FF06E006980068AA
:10226000059902F0CBFF00E0FFE70698012180F816
:102270003D10FFE70698002180F83C10FFE70020A2
:102280008DF81F00FFE79DF81F0008B080BD00001B
:1022900082B001460190009102B0704780B584B0D1
:1022A0000146029002980028019104D1FFE7012025
:1022B0008DF80F0021E0029890F83D00002808D129
:1022C000FFE70298002180F83C10029800F01AF80D
:1022D000FFE70298022180F83D10029850F8041B95
:1022E00000900846009902F0DBFC0298012180F87A
:1022F0003D1000208DF80F00FFE79DF80F0004B09F
:1023000080BD000082B001460190009102B070478C
:1023100080B588B013468C46864606900591049297
:102320000393CDF808C0CDF804E0FFE7069890F8D5
:102330003C00012804D1FFE702208DF81F0093E044
:102340000698012180F83C10FFE7FFE7069802217C
:1023500080F83D1004980C28009000F276800099D7
:10236000DFE801F007737373227373733D73737344
:10237000580006980068059902F0CAFD06980068A2
:10238000816941F00801816106980068816921F046
:10239000040181610598006906990968D1F818E07F
:1023A00040EA0E00886151E006980068059902F045
:1023B00029FE06980068816941F4006181610698F0
:1023C0000068816921F4806181610598006906993E
:1023D0000968D1F818E04EEA0020886136E00698D6
:1023E0000068059902F08CFE06980068C16941F00A
:1023F0000801C16106980068C16921F00401C1614A
:102400000598006906990968D1F81CE040EA0E00B9
:10241000C8611BE006980068059902F0EFFE069877
:102420000068C16941F40061C16106980068C16932
:1024300021F48061C1610598006906990968D1F8A5
:102440001CE04EEA0020C86100E0FFE70698012189
:1024500080F83D10FFE70698002180F83C10FFE768
:1024600000208DF81F00FFE79DF81F0008B080BD19
:1024700080B584B00146029002980028019104D1F1
:10248000FFE701208DF80F0021E0029890F83D0051
:10249000002808D1FFE70298002180F83C1002983C
:1024A00000F01AF8FFE70298022180F83D10029828
:1024B00050F8041B00900846009902F0F1FB0298C6
:1024C000012180F83D1000208DF80F00FFE79DF8F6
:1024D0000F0004B080BD000082B001460190009161
:1024E00002B0704782B001460190009102B070477F
:1024F00080B588B00A4603460790069107980068A1
:1025000006994FF0010C049262460393CDF808C07F
:1025100002F098FC0798006802990022C4F20102B8
:10252000904201910CD0FFE7079800684FF60041F8
:10253000CBF6FE710844B0FA80F040090190FFE745
:102540000198C007002807D0FFE707980068416C92
:1025500041F400414164FFE707980068806800F09B
:10256000070005900598062807D0FFE70798006840
:10257000016841F001010160FFE7002008B080BD63
:1025800080B586B00A460346059004910598006818
:1025900004994FF0000C03926246029302F052FC41
:1025A0000598006801210022C4F2010290420191C5
:1025B0000CD0FFE7059800684FF60041CBF6FE719E
:1025C0000844B0FA80F040090190FFE70198C00785
:1025D00000281BD0FFE7FFE705980068006A41F27A
:1025E0001111084210D1FFE705980068006A40F217
:1025F0004441084207D1FFE705980068416C21F487
:1026000000414164FFE7FFE7FFE7FFE7FFE70598C9
:102610000068006A41F21111084210D1FFE70598E5
:102620000068006A40F24441084207D1FFE705987C
:102630000068016821F001010160FFE7FFE7FFE7A3
:102640000598012180F83D10002006B080BD0000F3
:1026500080B586B001460590059840F2C402C2F2EA
:1026600000029042049145D1FFE740F21800C2F207
:102670000000016801310160006840F21C01C2F2F3
:1026800000010968884234D1FFE740F21800C2F225
:102690000000006800282CD0FFE740F21C00C2F2C6
:1026A00000000068002824D0FFE740F2C400C2F216
:1026B0000000002103900291FFF762FF40F2300119
:1026C000C2F20001DDF808E0C1F800E040F2142198
:1026D000C2F2000101220A6040F21801C2F20001B8
:1026E000C1F800E0039901900846FFF7D1FA009085
:1026F000FFE7FFE706B080BD82B001460190009180
:1027000002B0704782B001460190009102B070475C
:1027100080B58CB001460B900B98006800680A9059
:102720000B980068C06809900B9800684069089091
:102730000020079006900A9800F00F000790079875
:102740000028059112D1FFE79DF828008006002897
:102750000BD5FFE79DF824008006002805D5FFE78C
:102760000B9802F043FE0490E0E0FFE70798002892
:1027700000F0BA80FFE79DF82000C007002807D1CD
:10278000FFE7BDF8240010F4907F00F0AD80FFE774
:102790009DF82800C00700280CD0FFE79DF8250011
:1027A000C007002806D0FFE70B98C16B41F001017C
:1027B000C163FFE79DF82800400700280CD5FFE71C
:1027C0009DF82000C007002806D0FFE70B98C16BDA
:1027D00041F00201C163FFE79DF82800800700284F
:1027E0000CD5FFE79DF82000C007002806D0FFE7C2
:1027F0000B98C16B41F00401C163FFE79DF828000D
:10280000000700280CD5FFE79DF82000C00700282E
:1028100006D0FFE70B98C16B41F00801C163FFE7E9
:102820000B98C06B00285ED0FFE79DF8280080065B
:1028300000280BD5FFE79DF824008006002805D569
:10284000FFE70B9802F0D2FD0390FFE70B980068BA
:102850004069C0F3801006900B98C06B00070028F9
:1028600004D4FFE70698002833D0FFE70B9802F066
:1028700091FD0B98006840694006002824D5FFE7C9
:102880000B980068416921F0400141610B98406B51
:10289000002814D0FFE70B98406B45F27131C0F669
:1028A000000101650B98406BFDF74EFF002805D035
:1028B000FFE70B98406B016D8847FFE703E00B983B
:1028C000FFF720FFFFE703E00B98FFF71BFFFFE791
:1028D00008E00B98FFF716FF0B984FF0000EC0F8BA
:1028E0003CE0FFE7FFE721E09DF828000006002814
:1028F0000BD5FFE79DF824000006002805D5FFE76B
:102900000B9803F023F8029010E09DF82800400691
:1029100000280BD5FFE79DF824004006002805D5C8
:10292000FFE70B9802F04CFD0190FFE70CB080BD73
:1029300080B584B00146029002980028019104D12C
:10294000FFE701208DF80F0041E002988069002820
:1029500001D0FFE700E0FFE7029890F83900002877
:1029600008D1FFE70298002180F83810029800F0A3
:1029700033F8FFE70298242180F8391002980068A4
:10298000C16821F40051C160029802F0ABFD0298C9
:102990000068016921F49041016102980068416971
:1029A00021F02A01416102980068C16841F4005198
:1029B000C16002980021C16302984FF0200E80F898
:1029C00039E0029880F83AE08DF80F10FFE79DF8A3
:1029D0000F0004B080BD000080B59AB00146199088
:1029E0000020189017901690159014901998006870
:1029F00041F20002C4F2010290420D9142D1FFE780
:102A0000FFE70020139043F64400C4F2020001687F
:102A100041F010010160006800F01000139013985D
:102A20000C90FFE7FFE70020129043F63000C4F25D
:102A30000200016841F001010160006800F001003E
:102A4000129012980B90FFE74FF4C0601490022090
:102A5000159001201690032117910721189100214C
:102A6000C4F2020114AA0A9008461146FDF712FFAB
:102A70002520002209900A99FEF7BAF90998FEF775
:102A8000ABF997E01998006844F20041C4F20001E4
:102A9000884241D1FFE7FFE70020119043F6400054
:102AA000C4F20200016841F400310160006800F4E2
:102AB0000030119011980890FFE7FFE70020109078
:102AC00043F63000C4F20200016841F001010160E8
:102AD000006800F00100109010980790FFE70C20AC
:102AE00014900220159001211691032117910721BE
:102AF00018910021C4F2020114AA0690084611465A
:102B0000FDF7C8FE2620002205900699FEF770F911
:102B10000598FEF761F94CE01998006844F6000149
:102B2000C4F20001884243D1FFE7FFE700200F9085
:102B300043F64000C4F20200016841F480210160C4
:102B4000006800F480200F900F980490FFE7FFE7E3
:102B500000200E9043F63000C4F20200016841F0FC
:102B600002010160006800F002000E900E980390D0
:102B7000FFE74FF44060149002201590012016905A
:102B8000032017900721189140F20041C4F202017E
:102B900014AA029008461146FDF77CFE2720002269
:102BA00001900299FEF724F90198FEF715F9FFE765
:102BB000FFE7FFE71AB080BD80B587B013468C46AB
:102BC000864605900491ADF80E20059890F83A00DD
:102BD00020280293CDF804C0CDF800E04CD1FFE7E7
:102BE0000498002805D0FFE7BDF80E00002804D1A6
:102BF000FFE701208DF81B0042E0FFE7059890F801
:102C00003800012804D1FFE702208DF81B0037E0CF
:102C10000598012180F83810FFE7FFE7049805992F
:102C20008862BDF80E0005998885BDF80E000599EB
:102C3000C88505980021C1630598222180F83A10C3
:102C4000FFE70598002180F83810FFE70598006835
:102C5000C16841F48071C16005980068416941F024
:102C60000101416105980068C16841F02001C1601F
:102C700000208DF81B0003E002208DF81B00FFE709
:102C80009DF81B0007B080BD82B001460190009105
:102C900002B07047B0B58CB09C4696460C460546CF
:102CA0000A900991ADF822200793002005900A9818
:102CB00090F839002028CDF810C0CDF80CE002942F
:102CC000019540F09F80FFE70998002805D0FFE7B5
:102CD000BDF82200002804D1FFE701208DF82F0065
:102CE00094E0FFE70A9890F83800012804D1FFE744
:102CF00002208DF82F0089E00A98012180F8381011
:102D0000FFE7FFE70A980021C1630A98212180F8B4
:102D10003910FDF7C9FF0590BDF822000A99888493
:102D2000BDF822000A99C884FFE70A98C08C0028E1
:102D30004AD0FFE70A98C18C0139C1840A9880689B
:102D4000B0F5805F27D1FFE70A98059B07996A468F
:102D500011608021002202F04DFE002804D0FFE720
:102D600003208DF82F0051E00998069006980088FE
:102D70006FF35F200A99096848600A980069002883
:102D800004D1FFE709980230099003E00998013067
:102D90000990FFE717E00A98059B07996A461160BA
:102DA0008021002202F026FE002804D0FFE7032045
:102DB0008DF82F002AE00998411C099100780A99A2
:102DC00009684860FFE7B0E70A98059B07996A46DB
:102DD00011604021002202F00DFE002804D0FFE720
:102DE00003208DF82F0011E00A98202180F8391077
:102DF000FFE70A98002180F83810FFE700208DF8DF
:102E00002F0003E002208DF82F00FFE79DF82F0030
:102E10000CB0B0BD82B001460190009102B0704785
:102E2000FFE7FEE780B58EB00020ADF8360040F633
:102E30000001C4F202010F220C9008460B911146CA
:102E40000C9AFDF70FFF072101220B98FDF70AFFEF
:102E500008210B980C9AFDF705FF40F61000C4F20C
:102E60000200006800F0F000F0283FD0FFE70A20E1
:102E7000FDF78EFC40F61000C4F20200006800F07E
:102E8000F000F02831D0FFE740F61000C4F2020055
:102E9000006800F0F700ADF83400BDF834000146DA
:102EA00077280A9118D0FFE70A98B72810D0FFE7D3
:102EB0000A98D72808D0FFE70A98E72810D1FFE73B
:102EC0000120ADF836000FE00220ADF836000BE02F
:102ED0000320ADF8360007E00420ADF8360003E02B
:102EE0000020ADF83600FFE7FFE7FFE740F60000FF
:102EF000C4F202000F21002209900892FDF7B2FEF1
:102F00000B2101220998FDF7ADFE04210998089ACA
:102F1000FDF7A8FE40F61000C4F20200006800F0C1
:102F2000F000F0283FD0FFE70A20FDF731FC40F623
:102F30001000C4F20200006800F0F000F02831D068
:102F4000FFE740F61000C4F20200006800F0FB004A
:102F5000ADF83400BDF8340001467B28079118D045
:102F6000FFE70798BB2810D0FFE70798DB2808D0B9
:102F7000FFE70798EB2810D1FFE70520ADF83600F2
:102F80000FE00620ADF836000BE00720ADF8360064
:102F900007E00820ADF8360003E00020ADF8360069
:102FA000FFE7FFE7FFE740F60000C4F202000F2151
:102FB000002206900592FDF755FE0D21012206988C
:102FC000FDF750FE02210698059AFDF74BFE40F6EC
:102FD0001000C4F20200006800F0F000F0283FD0BA
:102FE000FFE70A20FDF7D4FB40F61000C4F2020010
:102FF000006800F0F000F02831D0FFE740F6100044
:10300000C4F20200006800F0FD00ADF83400BDF825
:10301000340001467D28049118D0FFE70498BD28AC
:1030200010D0FFE70498DD2808D0FFE70498ED28CA
:1030300010D1FFE70920ADF836000FE00A20ADF807
:1030400036000BE00B20ADF8360007E00C20ADF8A1
:10305000360003E00020ADF83600FFE7FFE7FFE7AA
:1030600040F60000C4F202000F21002203900292F9
:10307000FDF7F8FD0E210120039A01901046019AF8
:10308000FDF7F0FD03980199029AFDF7EBFD40F67C
:103090001000C4F20200006800F0F000F0283FD0F9
:1030A000FFE70A20FDF774FB40F61000C4F20200AF
:1030B000006800F0F000F02831D0FFE740F6100083
:1030C000C4F20200006800F0FE00ADF83400BDF864
:1030D000340001467E28009118D0FFE70098BE28F2
:1030E00010D0FFE70098DE2808D0FFE70098EE2810
:1030F00010D1FFE70D20ADF836000FE00E20ADF83F
:1031000036000BE00F20ADF8360007E01020ADF8D8
:10311000360003E00020ADF83600FFE7FFE7FFE7E9
:10312000BDF836000EB080BD80B588B00146ADF860
:103130001E000020069040F20420C2F20000028827
:1031400005924288059B5A430592808846F6040200
:103150009042049120D1FFE740F20420C2F2000027
:103160008079012818D1FFE740F20420C2F2000064
:10317000002181712A2242812B23838103900846FA
:103180000292019300F05EFC01200399887101987E
:103190004881029A8A8105E000200090009900F0A1
:1031A00051FCFFE700F0B4FE4FF0000ECDF818E040
:1031B000FFE70698059988420BD2FFE7BDF81E008D
:1031C0000021C6F208010880FFE70698013006904A
:1031D000EFE708B080BD000080B582B001468DF8F1
:1031E00007009DF807000028009176D1FFE740F224
:1031F0000420C2F2000000218171F02101804FF40F
:10320000A0714180808849F24131884214D0FFE7A3
:1032100040F20420C2F20000808846F60401884291
:103220000AD0FFE740F20420C2F20000808845F295
:103230001031884226D1FFE740F20420C2F200009C
:103240002C2101812A2141812B218181808846F610
:10325000040188420AD0FFE740F20420C2F20000D5
:10326000808845F2103188420BD1FFE740F20420FC
:10327000C2F200004FF4A07101804FF4F071418060
:10328000FFE729E040F20420C2F20000808845F206
:103290001051884214D1FFE740F20420C2F200002E
:1032A0004FF4305101814FF4285141814FF42C519A
:1032B00081814FF4F07101804FF4487141800AE040
:1032C00040F20420C2F2000022210181202141812C
:1032D00021218181FFE7FFE785E040F20420C2F26F
:1032E0000000012181714FF4A0710180F021418023
:1032F000808849F2413188420AD0FFE740F2042039
:10330000C2F20000808845F2103188420BD1FFE7FD
:1033100040F20420C2F200002C2101812A214181C7
:103320002B2181813FE040F20420C2F2000080881E
:1033300046F6040188420BD1FFE740F20420C2F2B6
:1033400000002C2101812B2141812A21818129E04A
:1033500040F20420C2F20000808845F210518842F9
:1033600014D1FFE740F20420C2F200004FF43051C4
:1033700001814FF4285141814FF42C5181814FF448
:10338000487101804FF4F07141800AE040F204205E
:10339000C2F200002221018121214181202181816D
:1033A000FFE7FFE7FFE740F20420C2F20000808859
:1033B00046F6040188420AD0FFE740F20420C2F238
:1033C0000000808845F2103188420BD1FFE740F2BF
:1033D0000420C2F200004FF4F07101804FF4A0719C
:1033E0004180FFE7FFE7002000F00EF902B080BD4A
:1033F00080B58AB013468C468646ADF82600ADF8F7
:103400002410ADF8222040F20420C2F2000080888F
:1034100049F2413188420793CDF818C0CDF814E045
:103420000AD0FFE740F20420C2F20000808845F293
:10343000103188421ED1FFE740F20420C2F20000A2
:1034400041890490084600F051FD9DF8270000F0E6
:103450003BFD9DF8260000F037FD0498808900F0C0
:1034600045FD9DF8250000F02FFD9DF8240000F09B
:103470002BFD98E040F20420C2F20000808845F263
:10348000105188422AD1FFE740F20420C2F2000026
:1034900041890390084600F029FD9DF8270000F0BF
:1034A00013FD03984189013188B200F01FFD9DF89A
:1034B000260000F009FD0398808900F017FD9DF8B3
:1034C000250000F001FD03988189013188B200F0E8
:1034D0000DFD9DF8240000F0F7FC63E040F20420AD
:1034E000C2F20000808846F60401884232D1FFE72C
:1034F00040F20420C2F20000807901280CD1FFE7DD
:1035000040F20420C2F2000000880138BDF8261005
:10351000401AADF82600FFE740F20420C2F2000096
:1035200041890290084600F0E1FC9DF8270000F078
:10353000CBFC9DF8260000F0C7FC0298808900F0C3
:10354000D5FC9DF8250000F0BFFC9DF8240000F09C
:10355000BBFC26E040F20420C2F200008079012882
:103560000CD1FFE740F20420C2F2000000880138CD
:10357000BDF82610401AADF82600FFE740F20420FF
:10358000C2F200004189BDF826200190084611468C
:1035900000F0CAFC01988089BDF8241000F0C4FC3A
:1035A000FFE7FFE7FFE740F20420C2F200000089D6
:1035B0004FF6FE71C6F207010880BDF82200002117
:1035C000C6F2080108800AB080BD000081B000206A
:1035D000C6F208000088ADF80200BDF8020001B094
:1035E0007047000080B582B00146ADF80600BDF816
:1035F0000600009100F07AFC0520FDF7C9F8FFF7FE
:10360000E5FF02B080BD000080B58AB001468DF8AC
:1036100027000020ADF82400ADF8220040F204207D
:10362000C2F2000080790128079138D1FFE740F20B
:103630000420C2F20000808846F6040188422ED0A1
:10364000FFE79DF8270001460728069126D806992E
:10365000DFE801F004080C1014181C2006208DF877
:1036600027001BE007208DF8270017E004208DF8C5
:10367000270013E005208DF827000FE001208DF8CA
:1036800027000BE000208DF8270007E003208DF8CD
:10369000270003E002208DF82700FFE7FFE740F254
:1036A0000420C2F20000808849F2413188421FD0D4
:1036B000FFE740F20420C2F20000808846F60401D1
:1036C000884215D0FFE740F20420C2F20000808853
:1036D00045F2103188420BD0FFE740F20420C2F2DD
:1036E0000000808845F21051884240F05A81FFE77F
:1036F0009DF8270001460728059138D80599DFE88D
:1037000001F004050C131A21282F30E0BDF8240025
:1037100040F08000ADF8240029E0BDF8240040F01E
:103720004000ADF8240022E0BDF8240040F0C000C5
:10373000ADF824001BE0BDF8240040F02000ADF8F7
:10374000240014E0BDF8240040F06000ADF824002F
:103750000DE0BDF8240040F0A000ADF8240006E024
:10376000BDF8240040F0E000ADF82400FFE740F28F
:103770000420C2F20000808845F21051884205D131
:10378000FFE74FF45850ADF8220003E03620ADF8C3
:103790002200FFE740F20420C2F20000808845F2D8
:1037A0001031884211D0FFE740F20420C2F200003D
:1037B000808845F21051884207D0FFE7BDF8240009
:1037C00040F00800ADF82400FFE740F20420C2F208
:1037D0000000808846F60401884207D1FFE7BDF863
:1037E000240040F00200ADF82400FFE7BDF82200FD
:1037F000BDF8241000F098FBBDF8240080060028D6
:1038000008D4FFE740F20420C2F2000080790128CA
:1038100017D1FFE740F20420C2F20000018840887F
:1038200081420DDAFFE740F20420C2F20000018875
:10383000ADF8201041880180BDF820104180FFE7DD
:1038400016E040F20420C2F2000001884088814264
:103850000DDDFFE740F20420C2F200000188ADF860
:10386000201041880180BDF820104180FFE7FFE76C
:1038700040F20420C2F20000808845F210518842D4
:1038800059D1FFE740F20420C2F2000041890490C0
:10389000084600F02BFB0020039000F015FB049875
:1038A0004189013188B200F021FB039800F00CFB44
:1038B00004984189023188B200F018FB049801880D
:1038C0000139C1F30F2000F0FFFA04984189033158
:1038D00088B200F00BFB049801880139C8B200F0EF
:1038E000F3FA0498808900F001FB039800F0ECFAE9
:1038F00004988189013188B200F0F8FA039800F049
:10390000E3FA04988189023188B200F0EFFA049852
:1039100041880139C1F30F2000F0D6FA049881895B
:10392000033188B200F0E2FA049841880139C8B244
:1039300000F0CAFA34E040F20420C2F200004189EB
:103940000290084600F0D2FA0020019000F0BCFA84
:10395000019800F0B9FA029801880139C1F30F20EB
:1039600000F0B2FA029801880139C8B200F0ACFA4E
:103970000298808900F0BAFA019800F0A5FA01983F
:1039800000F0A2FA029841880139C1F30F2000F03B
:103990009BFA029841880139C8B200F095FAFFE716
:1039A0004EE09DF8270001460728009138D800997D
:1039B000DFE801F0040B12191A21282FBDF82400AA
:1039C00040F03000ADF824002AE0BDF8240040F0BB
:1039D0001000ADF8240023E0BDF8240040F02000E2
:1039E000ADF824001CE01BE0BDF8240040F03800D6
:1039F000ADF8240014E0BDF8240040F02800ADF834
:103A000024000DE0BDF8240040F01800ADF82400BB
:103A100006E0BDF8240040F00800ADF82400FFE700
:103A20000320ADF82200BDF8240040F48050ADF82A
:103A30002400BDF82200BDF8241000F075FAFFE75D
:103A40000AB080BD80B588B00A460346ADF81E00B6
:103A5000ADF81C1040F20420C2F20000808849F248
:103A600041318842069205930AD0FFE740F20420D4
:103A7000C2F20000808845F2103188421ED1FFE773
:103A800040F20420C2F2000041890490084600F090
:103A90002DFA9DF81F0000F017FA9DF81E0000F0A7
:103AA00013FA0498808900F021FA9DF81D0000F0B7
:103AB0000BFA9DF81C0000F007FA98E040F2042091
:103AC000C2F20000808846F60401884232D1FFE746
:103AD00040F20420C2F20000807901280CD1FFE7F7
:103AE00040F20420C2F2000000880138BDF81E1028
:103AF000401AADF81E00FFE740F20420C2F20000B9
:103B000041890390084600F0F1F99DF81F0000F08C
:103B1000DBF99DF81E0000F0D7F90398808900F0CA
:103B2000E5F99DF81D0000F0CFF99DF81C0000F0AC
:103B3000CBF95BE040F20420C2F20000808845F23D
:103B4000105188422AD1FFE740F20420C2F200005F
:103B500041890290084600F0C9F99DF81F0000F065
:103B6000B3F902984189013188B200F0BFF99DF89C
:103B70001E0000F0A9F90298808900F0B7F99DF8BD
:103B80001D0000F0A1F902988189013188B200F08E
:103B9000ADF99DF81C0000F097F926E040F20420F2
:103BA000C2F20000807901280CD1FFE740F2042026
:103BB000C2F2000000880138BDF81E10401AADF8AE
:103BC0001E00FFE740F20420C2F200004189BDF868
:103BD0001E2001900846114600F0A6F90198808940
:103BE000BDF81C1000F0A0F9FFE7FFE7FFE708B001
:103BF00080BD000070B588B0DDF830C09E46144628
:103C00000D460646ADF81E00ADF81C108DF81B20C1
:103C10008DF81A308DF819C0BDF81C00ADF81400ED
:103C20009DF81A00C108012202EBD0024307002BC5
:103C300018BF11464FEA500001FB00F08DF8130049
:103C40009DF81B00A0F120008DF81B004FF0000034
:103C50008DF81600CDF80CE0029401950096FFE770
:103C60009DF816009DF81310884280F2B080FFE79F
:103C70009DF81A000C2810D1FFE79DF81B0000EBFF
:103C8000400045F6F651C0F6000101EB80009DF8BA
:103C90001610405C8DF818002AE09DF81A001028D4
:103CA0000ED1FFE79DF81B0046F26A21C0F6000125
:103CB00001EB00109DF81610405C8DF8180016E01E
:103CC0009DF81A00182810D1FFE79DF81B0000EBA3
:103CD000C00046F65A01C0F6000101EB80009DF8D5
:103CE0001610405C8DF8180000E070E0FFE7FFE779
:103CF00000208DF81700FFE79DF8170007285FDC0C
:103D0000FFE79DF81800000600280CD5FFE7BDF876
:103D10001E00BDF81C1040F21602C2F2000212880A
:103D2000FFF766FB11E09DF8190000280CD1FFE7B2
:103D3000BDF81E00BDF81C1040F20002C2F20002E5
:103D40001288FFF755FBFFE7FFE79DF818004000DA
:103D50008DF81800BDF81C000130ADF81C00BDF84E
:103D60001E0040F20421C2F200010988884201DBF2
:103D7000FFE72CE0BDF81C00BDF81410401A9DF8B8
:103D80001A10884215D1FFE7BDF81400ADF81C00E9
:103D9000BDF81E000130ADF81E00BDF81E0040F257
:103DA0000421C2F200010988884201DBFFE70EE02E
:103DB00006E0FFE79DF8170001308DF817009BE73C
:103DC000FFE79DF8160001308DF8160048E708B0AF
:103DD00070BD0000F0B58BB0DDF844C0DDF840E008
:103DE0001C4615460E460746ADF82A00ADF82810C9
:103DF000ADF82620ADF824308DF823E09DF82A0098
:103E00008DF82200BDF82A00BDF826100844ADF850
:103E10002600BDF82800BDF824100844ADF82400A1
:103E2000CDF81CC00694059504960397FFE71198FA
:103E3000007800217E28029108DCFFE711980078C5
:103E400000211F28C8BF01210291FFE70298C00787
:103E5000002836D0FFE7BDF82A00BDF826108842BA
:103E60000CDBFFE79DF82200ADF82A009DF8230047
:103E7000BDF828100844ADF82800FFE7BDF8280079
:103E8000BDF82410884201DBFFE71AE0BDF82A00E4
:103E9000BDF82810119A12789DF82330EC464FF0A7
:103EA000000ECCF800E0FFF7A5FE9DF82300BDF85A
:103EB0002A1001EB5000ADF82A0011980130119042
:103EC000B5E70BB0F0BD000082B00146ADF80600CA
:103ED000BDF80600ADF80600BDF806000022C6F2E7
:103EE00008021080009102B07047000082B00146C5
:103EF000ADF80600BDF80600ADF80600BDF80600F6
:103F00004FF6FE72C6F207021080009102B07047B1
:103F100040F20420C2F2000000894FF6FE71C6F2A2
:103F2000070108807047000083B00A460346ADF8D9
:103F30000A00ADF80810BDF80A004FF6FE71C6F28F
:103F400007010880BDF808000021C6F208010880BA
:103F50000192009303B0704780B590B000200F909D
:103F60000E900D900C900B900A900990089007907D
:103F70000690059004900390029040F23401C2F242
:103F800000014FF020420A6040F20412CAF200021F
:103F90004A608860C860086110224A618861C8610F
:103FA000086248624FF480538B62C8624FF48043CA
:103FB0000B634863886348640F2309930A934FF0A7
:103FC000180CCDF82CC00C900D924FF0110CCDF8C0
:103FD00038C00F904FF0030ECDF808E00393022392
:103FE000049305900692CDF81CC0089009A802AA77
:103FF000019008460199FDF743FC002803D0FFE734
:10400000FCF77AFAFFE710B080BD000080B59AB0E7
:10401000002019901890179016901590FFE7002037
:10402000149043F63000C4F20200016841F004012C
:104030000160006800F00400149014980E90FFE7EF
:10404000FFE70020139043F63000C4F2020001683D
:1040500041F080010160006800F080001390139827
:104060000D90FFE7FFE70020129043F63000C4F206
:104070000200016841F001010160006800F00100E8
:10408000129012980C90FFE7FFE70020119043F682
:104090003000C4F20200016841F0020101600068D2
:1040A00000F00200119011980B90FFE7FFE700204D
:1040B000109043F63000C4F20200016841F0100194
:1040C0000160006800F01000109010980A90FFE75F
:1040D000FFE700200F9043F63000C4F202000168B1
:1040E00041F008010160006800F008000F900F988F
:1040F0000990FFE740F60000C4F202000F21002201
:10410000089007910692FCF7ADFD40F20040C4F222
:104110000200022105900491069AFCF7A3FD4FF4DA
:1041200000410120059A03901046039AFCF79AFD7E
:1041300041F20000C4F2020002900399039AFCF7D6
:1041400091FD02980499069AFCF78CFD079815904A
:1041500003991691069A179218920DF1540E089829
:104160007146CDF804E0FCF795FBF0201590069819
:1041700016900399179108980199FCF78BFB48F268
:1041800002001590039816900699179118910598BA
:104190000199FCF77FFB0320159003991691069A6D
:1041A0001792189002980199FCF774FB1AB080BD21
:1041B00080B596B000201590149013901290119035
:1041C00010900F900E900D900C900B900A9009900B
:1041D000089007900690059004900390029001903B
:1041E00040F28401C2F200010022C4F201020A601E
:1041F00053224A60886044F62062CA6008616422E3
:104200004A6188610846FDF761FC002803D0FFE79A
:10421000FCF772F9FFE74FF48050129040F28400EF
:10422000C2F2000012A9FDF75BFD002803D0FFE7F2
:10423000FCF762F9FFE740F28400C2F20000FEF7EB
:104240002DF8002803D0FFE7FCF756F9FFE7002020
:104250001090119040F28400C2F2000010A9FDF706
:10426000E5FB002803D0FFE7FCF746F9FFE7002055
:1042700009900A900B900C900D900E900F9040F2C8
:104280008401C2F2000109AA009008461146009A72
:10429000FDF7A2FF002803D0FFE7FCF72DF9FFE7A9
:1042A0000020019002900390049005904FF400517B
:1042B0000691089040F28400C2F2000001A9FDF7C7
:1042C00057FB002803D0FFE7FCF716F9FFE740F2A1
:1042D0008400C2F20000FDF71DFF16B080BD000093
:1042E00080B58EB000200D900C900B900A90099034
:1042F000089007900690059004900390029001901A
:1043000040F2C401C2F200014FF080420A60532221
:104310004A6088604FF47A72CA6008618861084612
:10432000FDF7D4FB002803D0FFE7FCF7E5F8FFE733
:104330004FF480500A9040F2C400C2F200000AA973
:10434000FDF7CEFC002803D0FFE7FCF7D5F8FFE728
:1043500040F2C400C2F20000FEF78AF8002803D041
:10436000FFE7FCF7C9F8FFE700200890099040F24A
:10437000C400C2F2000008A9FDF758FB002803D0D2
:10438000FFE7FCF7B9F8FFE76020019000200290FA
:104390000390059040F2C401C2F2000101AA00900E
:1043A00008461146009AFDF7B3FF002803D0FFE747
:1043B000FCF7A2F8FFE740F2C400C2F20000FDF7EC
:1043C000A9FE0EB080BD000080B586B0002005902B
:1043D0000490039002900190009040F20411C2F208
:1043E000000140F60042C4F200020A6053224A6013
:1043F00088604FF6FF72CA60086188610846FDF761
:1044000065FB002803D0FFE7FCF776F8FFE74FF4E1
:104410008050029040F20410C2F2000002A9FDF7A1
:104420005FFC002803D0FFE7FCF766F8FFE70020F9
:104430000090019040F20410C2F200006946FDF7BE
:10444000F5FA002803D0FFE7FCF756F8FFE706B0BF
:1044500080BD000080B540F24410C2F2000041F27D
:104460000001C4F2010101604FF4E131416000211B
:104470008160C16001610C2242618161C161FEF70E
:1044800057FA002803D0FFE7FCF736F8FFE780BDB6
:1044900080B540F28410C2F2000044F20041C4F240
:1044A000000101604FF4E131416000218160C16091
:1044B00001610C2242618161C161FEF739FA002875
:1044C00003D0FFE7FCF718F8FFE780BD80B540F2A6
:1044D000C410C2F2000044F60001C4F20001016001
:1044E0004FF4E131416000218160C16001610C2223
:1044F00042618161C161FEF71BFA002803D0FFE72A
:10450000FBF7FAFFFFE780BDFFE7FEE780B582B06B
:1045100040F2C400C2F200000021FDF7E9FF019063
:1045200002B080BD7047000080B58BB013468C464A
:1045300086460A90099108920A9800F007000790B1
:104540000798C0F1070005280493CDF80CC0CDF8FA
:1045500008E003D3FFE70420019004E00798C0F1CE
:1045600007000190FFE7019806900798043006289D
:1045700003D8FFE70020009003E00798033800907D
:10458000FFE70098059009980699012202FA01F1C7
:104590000139084005998840089B02FA01F1013968
:1045A000194008430BB080BD704700007047000001
:1045B00080B586B0B0EE401AF0EE601A8DED020BB9
:1045C000029803999FED1A0B53EC102B8DED001BF5
:1045D000FBF7C6FE00280BD1FFE7029803999FED79
:1045E000160B53EC102BFBF7A0FE002807D1FFE7BA
:1045F00040F22900C2F200000078059013E09DED22
:10460000020B51EC100B9FED0E0B53EC102BFBF734
:104610001AFE41EC100B51EC100BFBF7BCFE00F046
:1046200013F80590FFE7059806B080BD00BF00BFF6
:10463000000000000000F03F000000000000F0BF9C
:1046400000000000E004E44082B0014601900198BF
:104650004AF228029042009104DBFFE74AF2270069
:10466000019008E00198B0F1FF3F03DCFFE7002074
:104670000190FFE7FFE7019840F2C401C2F2000198
:104680000968486340F22C00C2F20000006802B0E2
:104690007047000080B584B001460290029801384E
:1046A000B0F1807F019103D3FFE7012003901BE06D
:1046B000029801384EF21401CEF2000108604FF06A
:1046C000FF300F2101F0C8FA4EF21800CEF20000C0
:1046D000002101604EF21000CEF200004FF0070EF4
:1046E000C0F800E00391FFE7039804B080BD00002C
:1046F00080B5FCF7DFFA80BD80B596B00AA83021FE
:10470000FBF796FD00200990089007900690059011
:10471000FFE70020049043F64000C4F20200016865
:1047200041F080510160006800F0805004900498CE
:104730000290FFE7FFE70020039047F20000C4F279
:104740000000016841F480410160006800F480408D
:10475000039003980190FFE702200A9001210D9138
:1047600010210E9110900021119108211291A82181
:1047700013911490042015900AA8FCF747FD002817
:1047800003D0FFE7FBF7B8FEFFE70F2005900220FC
:104790000690002007904FF4A05008904FF48050EE
:1047A000099005A80521FCF753FB002803D0FFE77B
:1047B000FBF7A2FEFFE716B080BD00004EF6885062
:1047C000CEF20000016841F47001016043F6000080
:1047D000C4F20200016841F00101016043F60801E2
:1047E000C4F2020100220A6001684FF6FF73CFF69F
:1047F000F6631940016043F60401C4F2020143F27A
:104800001003C2F200430B60016821F480210160B3
:1048100043F60C00C4F2020002604EF60850CEF2DD
:1048200000004FF0006101607047000080B594B057
:10483000002013903221129008461191FBF7A8FF37
:1048400001211298FFF770FB1198FBF7A1FF129856
:10485000FEF7C8FE40F20421C2F200018880888879
:10486000FF2814DBFFE740F20420C2F2000080883A
:104870004FF6FF7188420AD0FFE740F20420C2F2EF
:1048800000008088B0F5134F40F0CE80FFE7D320C2
:10489000FFF72CFBFEF79AFE40F2042EC2F2000E48
:1048A000AEF80400CDF840E0FEF790FEDDF840E001
:1048B000AEF80400FEF78AFEDDF840E0AEF8040032
:1048C000BEF804000002AEF80400FEF77FFEDDF83B
:1048D00040E0BEF804100843AEF80400BEF804003F
:1048E00049F24131884200F09E80FFE7BF20FFF788
:1048F000FDFAFEF76BFE40F2042EC2F2000EAEF897
:104900000400CDF83CE0FEF761FEDDF83CE0AEF8D7
:104910000400FEF75BFEDDF83CE0AEF80400FEF7B5
:1049200055FEDDF83CE0AEF80400BEF804000002DD
:10493000AEF80400FEF74AFEDDF83CE0BEF80410D5
:104940000843AEF80400BEF8040046F604018842AD
:1049500068D0FFE7D420FFF7C9FAFEF737FE40F230
:10496000042EC2F2000EAEF80400CDF838E0FEF7D7
:104970002DFEDDF838E0AEF80400FEF727FEDDF886
:1049800038E0AEF80400BEF804000002AEF80400FF
:10499000FEF71CFEDDF838E0BEF804100843AEF860
:1049A0000400BEF8040045F21031884239D0FFE718
:1049B0004FF45A40FFF79AFAFEF708FE40F2042E31
:1049C000C2F2000EAEF804004FF45B40CDF834E0C4
:1049D000FFF78CFAFEF7FAFDDDF834E0AEF80400DC
:1049E000BEF804000002AEF804004FF45C40FFF78C
:1049F0007DFAFEF7EBFDDDF834E0BEF80410084365
:104A0000AEF80400BEF80400B0F5004F08D1FFE78F
:104A100040F20420C2F2000045F210518180FFE70D
:104A2000FFE7FFE7FFE7FFE7CF20FFF75FFA002090
:104A30000C90FFF749FA139801301390C1200B90A6
:104A4000FFF742FA30200A90FFF73EFAED20FFF719
:104A50004DFA6420FFF738FA0320FFF735FA1220E9
:104A6000FFF732FA8120FFF72FFAE820FFF73EFA2E
:104A70008520FFF729FA10200990FFF725FA7A2000
:104A8000FFF722FACB20FFF731FA3920FFF71CFAA3
:104A90002C20FFF719FA0C98FFF716FA3420FFF7CD
:104AA00013FA0220FFF710FAF720FFF71FFA202071
:104AB000FFF70AFAEA20FFF719FA0C98FFF704FA51
:104AC0000C98FFF701FAC020FFF710FA1B20FFF740
:104AD000FBF90B98FFF70AFA01200890FFF7F4F9A9
:104AE000C520FFF703FA0A98FFF7EEF90A98FFF7D7
:104AF000EBF9C720FFF7FAF9B720FFF7E5F9362001
:104B0000FFF7F4F94820FFF7DFF93A20FFF7EEF955
:104B10005520FFF7D9F9B120FFF7E8F90C98FFF716
:104B2000D3F91A20FFF7D0F9B620FFF7DFF90A20F2
:104B30000790FFF7C9F9A220FFF7C6F9F220FFF7A7
:104B4000D5F90C98FFF7C0F92620FFF7CFF90898A0
:104B5000FFF7BAF9E020FFF7C9F90F200690FFF739
:104B6000B3F92A200590FFF7AFF92820FFF7ACF939
:104B700008200490FFF7A8F90E20FFF7A5F9049884
:104B8000FFF7A2F95420FFF79FF9A920FFF79CF93E
:104B90004320FFF799F90798FFF796F90698FFF772
:104BA00093F90C98FFF790F90C98FFF78DF90C9892
:104BB000FFF78AF90C98FFF787F9E120FFF796F9DC
:104BC0000C98FFF781F91520FFF77EF91720FFF702
:104BD0007BF90720FFF778F911200390FFF774F9AC
:104BE0000620FFF771F92B200290FFF76DF9562090
:104BF000FFF76AF93C20FFF767F90520FFF764F932
:104C00000998FFF761F90698FFF75EF93F200190D8
:104C1000FFF75AF90198FFF757F90698FFF754F98B
:104C20000298FFF763F90C98FFF74EF90C98FFF71D
:104C30004BF90898FFF748F90198FFF745F90598EF
:104C4000FFF754F90C98FFF73FF90C98FFF73CF980
:104C50000C98FFF739F9EF20FFF736F90398FFF7C3
:104C600045F97820FBF794FD2920FFF73FF90898D4
:104C7000FEF7B2FA48F28420C4F24020DDF820E0CA
:104C8000C0F800E04FF6FF70FEF74EFA14B080BD9A
:104C900080B540F2C400C2F20000FDF7F7F880BD15
:104CA00085B00A4603460490039104980068029078
:104CB00004980021C4F2010188420192009325D09A
:104CC000FFE70498B0F1804F20D0FFE7049840F24E
:104CD0000041C4F20001884218D0FFE7049840F672
:104CE0000001C4F20001884210D0FFE7049840F6AA
:104CF0000041C4F20001884208D0FFE7049840F266
:104D00000041C4F2010188420AD1FFE7029820F075
:104D10007000029003984068029908430290FFE7F0
:104D200004980021C4F20101884255D0FFE704989D
:104D3000B0F1804F50D0FFE7049840F20041C4F238
:104D40000001884248D0FFE7049840F60001C4F211
:104D50000001884240D0FFE7049840F60041C4F2C9
:104D60000001884238D0FFE7049840F20041C4F2C5
:104D70000101884230D0FFE7049844F20001C4F2F8
:104D80000101884228D0FFE7049844F20041C4F2B0
:104D90000101884220D0FFE7049844F60001C4F2E4
:104DA0000101884218D0FFE7049841F60001C4F2DF
:104DB0000001884210D0FFE7049841F60041C4F298
:104DC0000001884208D0FFE7049842F20001C4F2D3
:104DD000000188420AD1FFE7029820F44070029057
:104DE0000398C068029908430290FFE7029820F0F8
:104DF0008000039949690843029002980499086069
:104E0000039880680499C8620398006804998862CE
:104E100004980021C4F20101884208D0FFE70498F9
:104E200040F20041C4F20101884205D1FFE7039836
:104E3000006904990863FFE704980121416105B006
:104E40007047000080B587B013468C4686460690B2
:104E500005910492059800F01F00012101FA00F06D
:104E60000390039806990A6A22EA000008620498EF
:104E7000059901F01F01884006990A6A10430862EB
:104E80000293CDF804C0CDF800E007B080BD00006B
:104E9000B0B589B09C4696460C46054608900791E9
:104EA00006920593089880680490049820F47F4047
:104EB000049007980699059A41EA0221084304994B
:104EC00008430490049808998860CDF80CC0CDF888
:104ED00008E00194009509B0B0BD000085B00A4615
:104EE000034604900391049880680290029820F091
:104EF0007000029003980299084340F00700029066
:104F00000298049988600192009305B070470000F0
:104F100087B00A460346069005910698016A21F07B
:104F2000010101620698006A0390069840680290A9
:104F3000069880690490049820F07000049004980A
:104F400020F0030004900598006804990843049039
:104F5000039820F0020003900598806803990843A5
:104F6000039006980021C4F2010188420192009347
:104F700008D0FFE7069840F20041C4F201018842E0
:104F80000ED1FFE7039820F0080003900598C06851
:104F9000039908430390039820F004000390FFE76F
:104FA00006980021C4F20101884208D0FFE7069864
:104FB00040F20041C4F20101884213D1FFE7029898
:104FC00020F480700290029820F4007002900598FE
:104FD0004069029908430290059880690299084344
:104FE0000290FFE702980699486004980699886144
:104FF000059840680699486303980699086207B0C7
:105000007047000087B00A4603460690059106984F
:10501000016A21F0100101620698006A0390069867
:1050200040680290069880690490049820F4E0405B
:105030000490049820F44070049005980068049946
:1050400041EA00200490039820F020000390059886
:105050008068039941EA0010039006980021C4F289
:10506000010188420192009308D0FFE7069840F2C0
:105070000041C4F2010188420FD1FFE7039820F0FC
:10508000800003900598C068039941EA00100390DE
:10509000039820F040000390FFE706980021C4F237
:1050A0000101884208D0FFE7069840F20041C4F2AF
:1050B0000101884215D1FFE7029820F48060029038
:1050C000029820F40060029005984069029941EA34
:1050D0008000029005988069029941EA8000029060
:1050E000FFE7029806994860049806998861059838
:1050F00040680699886303980699086207B070476C
:1051000087B00A460346069005910698016A21F485
:10511000807101620698006A0390069840680290C8
:105120000698C0690490049820F0700004900498D8
:1051300020F0030004900598006804990843049047
:10514000039820F40070039005988068039941EA61
:105150000020039006980021C4F2010188420192C8
:10516000009308D0FFE7069840F20041C4F2010125
:1051700088420FD1FFE7039820F400600390059860
:10518000C068039941EA00200390039820F48060EE
:105190000390FFE706980021C4F20101884208D07D
:1051A000FFE7069840F20041C4F20101884215D1A0
:1051B000FFE7029820F480500290029820F40050FB
:1051C000029005984069029941EA00100290059802
:1051D0008069029941EA00100290FFE7029806995F
:1051E000486004980699C861059840680699C863A4
:1051F00003980699086207B07047000087B00A4616
:105200000346069005910698016A21F480510162D7
:105210000698006A03900698406802900698C06954
:105220000490049820F4E0400490049820F4407026
:10523000049005980068049941EA002004900398BE
:1052400020F40050039005988068039941EA0030EB
:10525000039006980021C4F2010188420192009354
:1052600008D0FFE7069840F20041C4F201018842ED
:105270000BD1FFE7029820F4804002900598406926
:10528000029941EA80100290FFE70298069948606F
:1052900004980699C86105984068069908640398BF
:1052A0000699086207B0704780B588B013468C46EF
:1052B00086460790069105920798006A0390079822
:1052C000016A21F001010162079880690490049845
:1052D00020F0F00004900598049941EA0010049031
:1052E000039820F00A00039006980399084303905E
:1052F0000498079988610398079908620293CDF88A
:1053000004C0CDF800E008B080BD000080B588B0D2
:1053100013468C4686460790069105920798016AC7
:1053200021F0100101620798806904900798006AD3
:105330000390049820F4704004900598049941EA81
:1053400000300490039820F0A00003900698039981
:1053500041EA00100390049807998861039807991F
:1053600008620293CDF804C0CDF800E008B080BD1B
:1053700080B584B0014603900398806B0290029838
:105380000022C2850298C28402980191FDF7BAF901
:1053900004B080BD82B00146019001980068C268E7
:1053A00022F49072C26001980068426922F0010202
:1053B00042610198202280F83A20009102B07047A3
:1053C00080B582B00146019001980068C26822F061
:1053D0004002C2600198202280F839200198009193
:1053E000FDF718FD002002B080BD000080B584B03C
:1053F00001460290029890F83A002228009169D163
:10540000FFE702988068B0F5805F20D1FFE702983F
:10541000806A01900298006900280CD1FFE7029889
:10542000006840686FF35F20019908800298816AE4
:10543000023181620AE0029800684068C0B20199B6
:1054400008800298816A01318162FFE719E00298C1
:105450000069002809D1FFE70298006840680299B6
:105460008A6A531C8B6210700AE0029800684068D8
:1054700000F07F0002998A6A531C8B621070FFE76C
:10548000FFE70298C18D0139C185080400281DD1AC
:10549000FFE702980068C16821F02001C16002980E
:1054A0000068C16821F48071C16002980068416998
:1054B00021F0010141610298202180F83A10029800
:1054C000FDF7E2FB00208DF80F0007E000208DF8CB
:1054D0000F0003E002208DF80F00FFE79DF80F009A
:1054E00004B080BD70B5B8B00146379037980068F9
:1054F000006920F44050379A1368D268104318614D
:10550000379882680369D0F814C0C0691A4342EA28
:105510000C021043369037980068C06849F20C625C
:105520009043369A1043379A1268D06037980068D3
:10553000406920F44070379A1368926910435861AB
:105540003798C069B0F5004F359140F00081FFE712
:105550003798006841F20001C4F20101884209D085
:10556000FFE73798006841F20041C4F20101884228
:1055700076D1FFE7FBF7C0FD4FF0190E00FB0EF0F0
:10558000379949684900B0FBF1F048F21F51C5F264
:10559000EB11A0FB01026FF00F0303EA5202CDF8FA
:1055A000D0E0339132903192FBF7A6FD3499484315
:1055B000379A52685200B0FBF2F03090FBF79CFD36
:1055C00034994843379A52685200B0FBF2F0339A4C
:1055D000A0FB02035B094FF0640EDDF8C0C003FBC3
:1055E0001EC34FF0320C0CEBC303A3FB0234F825AF
:1055F00005EA5414319D05EB44042F90CDF8B8E032
:10560000CDF8B4C02C932B94FBF776FD3499484326
:10561000379A52685200B0FBF2F02A90FBF76CFD0B
:1056200034994843379A136852685200B0FBF2F03D
:10563000339AA0FB020C4FEA5C1CDDF8B8E02A9C10
:105640000CFB1E4C2D9C04EBCC0CACFB02C5C5F333
:1056500042152B9E35449D602990CDF8A0C075E081
:10566000FBF736FD4FF0190E00FB0EF03799496835
:105670004900B0FBF1F048F21F51C5F2EB11A0FB5D
:1056800001026FF00F0303EA5202CDF89CE026916D
:1056900025902492FBF71CFD27994843379A5268BE
:1056A0005200B0FBF2F02390FBF712FD279948431C
:1056B000379A52685200B0FBF2F0269AA0FB020320
:1056C0005B094FF0640EDDF88CC003FB1EC34FF086
:1056D000320C0CEBC303A3FB0234F82505EA541487
:1056E000249D05EB44042290CDF884E0CDF880C0E1
:1056F0001F931E94FBF7ECFC27994843379A526896
:105700005200B0FBF2F01D90FBF7E2FC27994843F2
:10571000379A136852685200B0FBF2F0269AA0FB49
:10572000020C4FEA5C1CDDF884E01D9C0CFB1E4C57
:10573000209C04EBCC0CACFB02C5C5F342151E9EAD
:1057400035449D601C90CDF86CC0FFE7FCE03798B5
:10575000006841F20001C4F20101884209D0FFE76C
:105760003798006841F20041C4F20101884275D1C6
:10577000FFE7FBF7C1FC4FF0190E00FB0EF0379965
:1057800049688900B0FBF1F048F21F51C5F2EB11F6
:10579000A0FB01026FF00F0303EA5202CDF868E0AC
:1057A000199118901792FBF7A7FC1A994843379A5A
:1057B00052689200B0FBF2F01690FBF79DFC1A992C
:1057C0004843379A52689200B0FBF2F0199AA0FB56
:1057D00002035B094FF0640EDDF858C003FB1EC3E3
:1057E0004FF0320C0CEB0313A3FB0234F02505EA57
:1057F0005414179D2C441590CDF850E0CDF84CC0B2
:1058000012931194FBF778FC1A994843379A52681F
:105810009200B0FBF2F01090FBF76EFC1A9948432F
:10582000379A136852689200B0FBF2F0199AA0FB05
:10583000020C4FEA5C1CDDF850E0109C0CFB1E4C87
:10584000139C04EB0C1CACFB02C5C5F34315119E65
:1058500035449D600F90CDF838C074E0FBF738FCFC
:105860004FF0190E00FB0EF0379949688900B0FB24
:10587000F1F048F21F51C5F2EB11A0FB01026FF0ED
:105880000F0303EA5202CDF834E00C910B900A9218
:10589000FBF71EFC0D994843379A52689200B0FB03
:1058A000F2F00990FBF714FC0D994843379A5268BF
:1058B0009200B0FBF2F00C9AA0FB02035B094FF0E0
:1058C000640EDDF824C003FB1EC34FF0320C0CEB5A
:1058D0000313A3FB0234F02505EA54140A9D2C445B
:1058E0000890CDF81CE0CDF818C005930494FBF7A0
:1058F000EFFB0D994843379A52689200B0FBF2F0E3
:105900000390FBF7E5FB0D994843379A13685268FB
:105910009200B0FBF2F00C9AA0FB020C4FEA5C1C68
:10592000DDF81CE0039C0CFB1E4C069C04EB0C1CDD
:10593000ACFB02C5C5F34315049E35449D6002903F
:10594000CDF804C0FFE7FFE738B070BD84B0014672
:105950000290029890F839002128009142D1FFE787
:1059600002988068B0F5805F1AD1FFE70298006A5C
:105970000190019800886FF35F20029909684860E0
:1059800002980069002805D1FFE70298016A0231F8
:10599000016204E00298016A01310162FFE708E058
:1059A0000298016A4A1C02620878029909684860F4
:1059B000FFE70298C18C0139C184080400280DD189
:1059C000FFE702980068C16821F08001C160029879
:1059D0000068C16841F04001C160FFE700208DF818
:1059E0000F0003E002208DF80F00FFE79DF80F0085
:1059F00004B0704770B58AB0DDF838C09E461446D2
:105A00000D460646089007918DF81B200593CDF8AA
:105A100010C0CDF80CE0029401950096FFE70898BD
:105A20000068006807990840401AB0FA80F0400901
:105A30009DF81B10884233D1FFE70E9801300028F3
:105A40002DD0FFE70E9800280BD0FFE7FBF72CF9CD
:105A5000DDF814E0A0EB0E00DDF838E070451DD94C
:105A6000FFE708980068C16821F4D071C160089808
:105A70000068416921F0010141610898202180F806
:105A80003910089880F83A10FFE70898002180F84C
:105A90003810FFE703208DF8270005E0FFE7BEE799
:105AA00000208DF82700FFE79DF827000AB070BDA1
:105AB00080B540F24410C2F20000FCF729FE80BD20
:105AC00080B540F28410C2F20000FCF721FE80BDD8
:105AD00080B540F2C410C2F20000FCF719FE80BD90
