:020000040800F2
:10000000980600209D010008655B0008F14000088B
:10001000615B0008390F00086571000800000000EE
:10002000000000000000000000000000ED5B000880
:10003000D514000800000000E95B00084D5C0008D2
:10004000B7010008B7010008B7010008B7010008B0
:10005000B7010008B7010008B7010008B7010008A0
:10006000B7010008B7010008B7010008B701000890
:10007000B7010008B7010008B7010008B701000880
:10008000B7010008B7010008B7010008B701000870
:10009000B7010008B7010008B7010008B701000860
:1000A000B7010008B7010008B7010008B701000850
:1000B000ED610008B7010008B7010008B7010008AA
:1000C000B7010008B7010008B7010008B701000830
:1000D000B701000835710008457100085571000826
:1000E000B7010008B7010008B7010008B701000810
:1000F000B7010008B7010008B7010008B701000800
:10010000B7010008B7010008B7010008B7010008EF
:10011000B7010008B7010008B7010008B7010008DF
:10012000B7010008B7010008B7010008B7010008CF
:10013000B7010008B7010008B7010008B7010008BF
:10014000B7010008B7010008B7010008B7010008AF
:10015000B7010008B7010008B7010008B70100089F
:10016000B7010008B7010008B7010008B70100088F
:10017000B7010008B7010008B7010008000000003F
:10018000B7010008B7010008DFF80CD000F002FC4E
:10019000004800472177000898060020064880475D
:1001A00006480047FEE7FEE7FEE7FEE7FEE7FEE75C
:1001B000FEE7FEE7FEE7FEE7195D0008890100089B
:1001C0002DE9F05F0546002092469B46884606468C
:1001D000814640241BE0284641464746224600F01F
:1001E000F7F953465A46C01A914110D311461846A2
:1001F000224600F0DEF92D1A67EB01084F46224631
:100200000120002100F0D5F917EB00094E41201E16
:10021000A4F10104DFDC484631462A464346BDE8E6
:10022000F09FD2B201E000F8012B491EFBD27047CB
:100230000022F6E710B513460A4604461946FFF7B2
:10024000F0FF204610BD70B5064607F0ADFA046811
:1002500005460A220021304600F030FA2C6070BDBD
:100260002DE9FE4F804681EA0300C00F0C46009046
:1002700021F0004123F00045B8EB0200A94105D26E
:100280004046214690461C460B46024623F000405D
:10029000104347D0270DC7F30A00C3F30A51029059
:1002A000401A019040286BDAC3F3130040F4801B1E
:1002B0000098924620B10023D2EB030A63EB0B0BAC
:1002C00001985946C0F14002504600F072F90646C6
:1002D0000D4650465946019A00F08AF910EB080085
:1002E0006141002487EA115284EAE7731A4340D03F
:1002F000009A62B3019A012A4FEA075215DC001BEB
:1003000061EB02014FF0004202EA0752CDE90042E0
:10031000001C41F5801132462B4600F04DFA03B027
:10032000BDE8F08F40462146F9E7001B61EB020172
:10033000001C41F5801300185B412018A2F500173E
:1003400047EB030140EAD570B6196D4111E06D0825
:100350004FEA360645EAC0754FEA0752001B61EBCB
:100360000201001C41F5801149084FEA30000019D4
:10037000514132462B4603B0BDE8F04F00F00DBAB4
:100380000098012240000023D0EB020263EBE073EF
:10039000009821464FEAE074B8EB000061EB0401DD
:1003A000E9E783F000435BE781F0004158E72DE97E
:1003B000FE4F81EA030404F0004421F00041009460
:1003C0004FF0000B23F0004350EA01045ED052EAE4
:1003D00003045BD0C3F30A54C1F30A552C44A4F2BE
:1003E000F3340194A0FB0254C1F3130141F48011D2
:1003F000C3F3130343F4801301FB024400FB034ED9
:10040000840A970A44EA815447EA8357A4FB0768A1
:1004100002958D0A05FB07854FEA932C04FB0C54CB
:100420002705029D4FEA065847EA1637B5EB08053F
:100430006EEB070C870E920E47EA811742EA831291
:10044000A7FB0201B6EB0B0164EB00042B0D43EAA2
:100450000C335E1844EB1C50DA465146E7FB0201B0
:10046000C5F313044FEA0B3343EA14534FEA043243
:10047000019C43EA0603A4F10C040294009CCDE91C
:1004800000B400F099F903B0BDE8F08F00200146F8
:10049000F9E730B5041E71F1000404DB4FF00044AD
:1004A000404264EB0101141E73F1000405DB1C469D
:1004B0004FF00043524263EB0403801A994101D28A
:1004C000012030BD002030BD0EB5C10F80EAE070C4
:1004D0000844CA07002140F233438DE80E000A4663
:1004E0000B4600F069F903B000BD70B5C1F30A52C4
:1004F00001F000450024C1F3130140F2FF3341F441
:1005000080119A4201DA002070BD40F233439A42D2
:10051000A2F2334203DC524200F05AF800E090406D
:100520002C43F1D0404270BD00F0004230F000405A
:100530000AD0C10D01F56071C0F3160042EA015105
:10054000C20840071143704700200146704701F080
:10055000004330B421F0004150EA010206D00A0DF8
:10056000A2F56072C1F31301002A02DC30BC002046
:100570007047440F44EAC104C100E01830BC00EBEE
:10058000C25000F0D3B830B50B46014600202022FF
:10059000012409E021FA02F59D4205D303FA02F590
:1005A000491B04FA02F52844151EA2F10102F1DCF0
:1005B00030BD202A04DB203A00FA02F10020704707
:1005C0009140C2F1200320FA03F319439040704791
:1005D000202A04DB203A21FA02F00021704721FA98
:1005E00002F3D040C2F120029140084319467047FF
:1005F000202A06DBCB17203A41FA02F043EAE073E7
:1006000006E041FA02F3D040C2F1200291400843D3
:10061000194670470FB40B0010B58AB00FA90091AE
:100620000E994FF00004234ACC60214CCDE90642DC
:1006300000D004236FF00042CDE901321E4A089237
:1006400002466B46002000F059FA0AB010BC5DF873
:1006500014FBF0B585B007464FF0FF300091CDE9AF
:1006600001011E46002015460C4604903B466A4692
:10067000314604A8FFF7CEFF04990346601825B160
:1006800009B1024600E022462A6000290ED0002B64
:1006900002DD0099814209D00094001BCDE90104DC
:1006A0003B466A46314604A8FFF7B4FF05B0F0BDEB
:1006B000350D0008530D0008C10900082DE9F04769
:1006C00091460F4680460446002614F8015B2DB182
:1006D00000F072F90068405DC007F6D12B2D02D002
:1006E0002D2D18D0641E4A463946204600F042FBA4
:1006F00027B13968A14201D1C7F8008071054FF0D8
:1007000002040BD54042002803DD07F04DF80460D9
:10071000A007BDE8F08746F48066E4E70028F8DA31
:1007200007F042F804606FF00040F2E70029A8BF2C
:100730007047401C490008BF20F00100704710B40A
:10074000B0FA80FC00FA0CF050EA010404BF10BCBF
:10075000704749B1CCF1200421FA04F411FA0CF1EC
:1007600018BF012121430843A3EB0C01CB1D4FEA25
:1007700000614FEA102042BF002010BC704700EB20
:10078000C35010440029A4BF10BC7047401C49004E
:1007900008BF20F0010010BC704710B5141E73F1A3
:1007A000000408DA401C41F1000192185B411A4331
:1007B00001D120F0010010BD2DE9F04D92469B467D
:1007C00011B1B1FA81F202E0B0FA80F22032904623
:1007D000FFF7EFFE04460F4640EA0A0041EA0B012C
:1007E00053465A46084313D0114653EA010019D024
:1007F000C8F140025046FFF7EBFE05460E46504654
:1008000059464246FFF7D5FE084305D0012004E0D3
:1008100020463946BDE8F08D0020054346EAE076E3
:100820002C4337430A986305E40AA0EB0800002232
:10083000FD0A44EA47540A3002D500200146E9E7A0
:10084000010510196941DDE9084500196941BDE854
:10085000F04DA2E72DE9F04D81EA030404F0004BCE
:1008600021F0004514464FF0000A23F0004150EA01
:10087000050220D054EA01021DD0C5F30A570246F2
:10088000C5F31303C1F31300C1F30A5640F48015F6
:1008900043F48013A7EB0608101BD64608F2FD3878
:1008A00073EB050002D308F1010801E092185B41E7
:1008B000B8F1000F03DA00200146BDE8F08D0020FA
:1008C0004FF48011064684460EE0171B73EB0507B4
:1008D00005D3121B63EB050306434CEA010C4908E0
:1008E0004FEA300092185B4150EA0107EDD152EA1D
:1008F000030012D082EA040083EA0501084305D010
:10090000101BAB4106D20122002306E000224FF06B
:10091000004302E06FF0010253101AEB06004CEBAB
:10092000085110EB0A0041EB0B01BDE8F04DFFF759
:1009300034BFC1F30A52C1F3130140F2FF3341F453
:1009400080119A4202DA00200146704740F2334398
:100950009A42A2F2334202DC5242FFF739BEFFF75D
:1009600028BE000030B5041E71F1000404DB4FF016
:100970000044404264EB0101141E73F1000405DBE6
:100980001C464FF00043524263EB0403994208BFF8
:10099000904230BD064C074D06E0E06840F0010390
:1009A00094E8070098471034AC42F6D3FFF7F0FB09
:1009B00090990008B09900080048704770810008BD
:1009C00010B50446FFF7F8FF0068005D00F0010075
:1009D00010BD00002DE9FF4F087883B09946FF282D
:1009E00005D0491C2D2804D00024002008E0002058
:1009F0000BE00124F9E700EB800003EB4000491C09
:100A00000B78FF2BF7D104B14042002302931478F6
:100A100019461D462D2C01D02B2C04D1521C2D2CF7
:100A200013D000240294AA461478FF2C0FD00A2574
:100A3000A3FB057801FB05814FF0000C03FB0C11B3
:100A4000521CE3194AEB0101EEE70124EAE7814475
:100A500053EA010002D019F5C87F06DA0398002195
:100A6000C0E9001107B0BDE8F08F0025AE4E2F465B
:100A7000DFF8B882184600F0DAF9CDE90001B9F1E3
:100A8000000002DAC9F1000400E004460023A74A8E
:100A90001AEB030B42EB045A12E0E00707D02A4698
:100AA000334638464146FFF782FC074688462A46C9
:100AB000334610461946FFF77AFC05460E46641089
:100AC000002CEAD1DDE90001B9F1000F5A46534686
:100AD00006DAFFF7BFFE3A464346FFF7BBFE05E0E6
:100AE000FFF765FC3A464346FFF761FC029A0AB1FC
:100AF00081F00041039AC2E90001B3E72DE9FF4FFD
:100B00001F468DB0D7E901464FF0FF382E204546ED
:100B10004FF000090B90B9696D1C0E988847396A2F
:100B2000824688470028F6D1BAF1FF3F0AD024F464
:100B3000D064002E11DDBAF12B0F08D0BAF12D0FC1
:100B40000BD102E0404611B08DE744F48064B969EE
:100B50006D1C0E9888478246761E6946600501D551
:100B60002D2000E02B208DF8000001F1010B0DF18C
:100B7000200809E0B9696D1C0E98884782460F98D5
:100B800044F40074761E0560002E02DDBAF1300FC9
:100B9000F0D00B998A453ED144F0800406E00F99CD
:100BA000681CA9F1010944F400740860B9696D1C5E
:100BB000761E0E98884782463028F0D02BE00B999D
:100BC0008A4505D1200603D444F08004761E18E03F
:100BD000504606F0E7FE08B30DF11302761EAAF1A7
:100BE000300044F40074934506D20BF8010B200644
:100BF00007D5A9F1010003E0200602D409F10100A4
:100C00008146A00502D50F99681C0860B9696D1C62
:100C10000E9888478246002ED1DC53E0002E51DD2D
:100C2000BAF1650F02D0BAF1450F4BD1A00549D5F5
:100C3000B9696D1C24F44074761E0E98884782466C
:100C4000002E0CDD2B2804D0BAF12D0F07D144F46F
:100C50008074B9696D1C0E9888478246761EE0053F
:100C600001D52D2100E02B2108F8011BCDF82C80A7
:100C700021E00DF12901761E44F4007488450CD260
:100C8000AAF1300010F0FF0088F8000002D10B99A3
:100C9000884509D908F1010806E0E00501D5244896
:100CA00001E042F20F708146B9696D1C0E988847C9
:100CB00082460F980560002E04DD504606F072FE55
:100CC0000028D6D1F9690E988847FF208BF80000DC
:100CD00088F800000020069007904B466A4608A955
:100CE00006A8FFF777FEA00502D46FF001002AE7FF
:100CF00014F0240F0AD0E00714D1DDE90612386899
:100D0000031D3B600068C0E900120BE0DDE906014D
:100D1000FFF71DFC0146E00704D13868021D3A6068
:100D20000068016028460EE7000014400000F03F14
:100D3000F1D8FFFF426842B1016811F8013B23B1CD
:100D4000521EC0E90012184670470121C160881E7A
:100D5000704742685AB1C368016843B983688B42DF
:100D600005D0491E521CC0E90012002070474FF008
:100D7000FF3070472DE9F05F824600780027154666
:100D80008B460AF10104B946302801D09DB113E029
:100D900014F8010B0127782803D0582801D045B159
:100DA0000AE00DB1102D07D10027102514F8010B12
:100DB00002E0082500E00A250026B0460EE005FB0B
:100DC000080005FB06F1012701EB10461FFA80F829
:100DD000B6F5803F00D3B94614F8010B294600F060
:100DE00018F80028EBDABBF1000F05D00FB1641E34
:100DF00000E05446CBF80040B9F1000F06D006F0F1
:100E0000D3FC02210160C81EBDE8F09F48EA0640FD
:100E1000FAE73A2800D2303820F02002412A01D3E4
:100E2000A2F13700884201D34FF0FF3070470EB572
:100E300040F2334202920022CDE900221346FFF72E
:100E4000BBFC03B000BD000080B586B005A8B0EEC5
:100E5000401A80ED000A00218DF8131090ED000A71
:100E60009FED332AB4EEC20AF1EE10FA03908DED35
:100E7000021A05DDFFE70020C4F296300590FFE777
:100E8000039890ED000A9FED2B1AB4EEC10AF1EE23
:100E900010FA05DAFFE70020C4F248300590FFE7BA
:100EA0000598FFF741FB41EC100B9FED1D1B53EC28
:100EB000112B51EC100BFFF77AFA41EC100B51ECAF
:100EC000100B9FED190B53EC102BFFF7C9F941ECF8
:100ED000100B51EC100BFFF708FB8DF8130040F2DC
:100EE0003020C2F200000DF1130101220A2303F0A9
:100EF00039F849F66511C0F600010190084606F080
:100F00002FFC4FF4FA610090084600F04DFD41F2CD
:100F1000243000F0D1FC06B080BD00BF00BF00BF90
:100F2000FBCBEEC9C342E53FBA490C022B1F51C0AF
:100F30000000964300004843FFE7FEE780B582B01B
:100F40000020ADF8060003F0D5F800283AD0FFE7FE
:100F5000642000F029FD03F0CDF8002831D0FFE730
:100F600003F0C8F8ADF80600BDF80600012803D16B
:100F7000FFE700F025F923E0BDF80600022803D1C1
:100F8000FFE700F041F91AE0BDF80600032803D19D
:100F9000FFE700F0ADF911E0BDF80600042803D129
:100FA000FFE700F011F808E0BDF80600052803D1BE
:100FB000FFE700F08FF8FFE7FFE7FFE7FFE7FFE756
:100FC000FFE7FFE702B080BD80B584B04FF6FF7049
:100FD00003F012FAFFE703F08DF8002801D0FFE7D5
:100FE000F9E7FFE703F086F8002801D1FFE7F9E70A
:100FF00049F67E10C0F6000069464860102008607F
:101000000F213222C8230390084611461A46039B3B
:1010100004F004F900209FED2D0A4FF4FA710290BC
:1010200004F01AFA41F2883000F0BEFC40F2882049
:10103000C2F2000002990160FFE740F28C20C2F288
:101040000000006800280DD1FFE768464FF4AA7140
:10105000016001204FF4487164224FF4A57304F03D
:101060009FF9EAE74FF4FA7000F09EFC40F284200A
:10107000C2F20000007800281AD1FFE740F23400E5
:10108000C2F2000090ED000A9FED111A20EE010A55
:10109000BDEEC00A10EE100A40F21E01C2F20001BD
:1010A000087040F28420C2F2000001210170FFE7C5
:1010B00040F21E00C2F20000007800EE100AB8EE06
:1010C000400AFFF7C1FE04B080BD00BF00008442AB
:1010D0000000C84280B584B04FF6FF7003F08CF971
:1010E000FFE703F007F8002801D0FFE7F9E7FFE783
:1010F00003F000F8002801D1FFE7F9E70020ADF880
:101100000E007520ADF80E0040F23020C2F2000053
:101110000DF10E0101220A2302F024FF49F66511A8
:10112000C0F600010290084606F01AFB4FF47A71EF
:101130000190084600F038FCFFE740F25400C2F28C
:101140000000006800280DD1FFE74FF4FA7000F0AE
:101150002BFC40F28820C2F200004FF0000EC0F8D5
:1011600000E0FFE740F25800C2F2000000789FED77
:10117000130A642104F070F940F25C00C2F200002E
:101180000068002818D1FFE700F0E2FBB0F5967F79
:1011900011DBFFE700F0DCFBB0F59B7F0BDCFFE72A
:1011A00040F25C00C2F200000121016041F22430F3
:1011B00000F082FBFFE7FFE7BFE700BF00007042DF
:1011C00080B54FF6FF7003F017F90A2000F0ECFB32
:1011D000FFE702F08FFF002801D0FFE7F9E7FFE704
:1011E00002F088FF002801D1FFE7F9E741F224303F
:1011F00000F062FB4FF4FA6000F0D6FB4FF6FF7090
:1012000003F0FAF880BD000080B588B00020ADF88A
:101210001E004FF6FF7003F0EFF80A2000F0C4FB49
:1012200000F05AF9BDF81EE0642110FB01E0ADF8B2
:101230001E0000F051F900EB8000BDF81E1001EB1C
:101240004000ADF81E0000F047F9BDF81E1008443C
:10125000ADF81E00FFE702F04DFF002801D0FFE7C8
:10126000F9E7FFE702F046FF002801D1FFE7F9E7C1
:10127000BDF81E2040F25000C2F2000049F67B117A
:10128000C0F60001069006F07BFA49F67111C0F62F
:1012900000016A465160102111600F224FF0190EB3
:1012A000C82305901046049171461A46DDF810C017
:1012B00003936346CDF808E003F0B0FF6846069953
:1012C0004160049A02605A200299039A049B03F039
:1012D000A5FFBDF81E0000F0AFF94FF6FF7003F058
:1012E0008BF84FF4FA6000F05FFB08B080BD00009F
:1012F00080B592B00020ADF84600ADF844008DF8FE
:1013000043008DF842004FF6FF7003F075F80A2095
:1013100000F04AFB00F0E0F8BDF844E0642110FB67
:1013200001E0ADF8440000F0D7F800EB8000BDF814
:10133000441001EB4000ADF8440000F0CDF8BDF8DA
:1013400044100844ADF84400FFE702F0D3FE002843
:1013500001D0FFE7F9E7FFE702F0CCFE002801D15A
:10136000FFE7F9E7BDF9442040F24F00C2F2000068
:1013700049F67B11C0F600010F9006F001FA49F61C
:101380006711C0F600016A465160102111600F22FA
:101390004FF0190EC8230E9010460D9171461A4653
:1013A000DDF834C00C936346CDF82CE003F036FF33
:1013B00068460F9941600D9A02605A200B990C9A69
:1013C0000D9B03F02BFF00F087F8BDF84610642258
:1013D00010FB0210ADF8460000F07EF800EB800034
:1013E000BDF8461001EB4000ADF8460000F074F87F
:1013F000BDF846100844ADF84600FFE702F07AFE5B
:10140000002801D0FFE7F9E7FFE702F073FE0028AC
:1014100001D1FFE7F9E7BDF8462040F25000C2F2E3
:10142000000049F67B11C0F600010A9006F0A8F909
:1014300049F67111C0F600016A4651601021116031
:101440000F224FF0320EC8230990104608917146C2
:101450001A46DDF820C007936346CDF818E003F084
:10146000DDFE68460A994160089A02605A20069992
:10147000079A089B03F0D2FE40F28820C2F20000D7
:10148000002101609FED120A4FF4FA7205900846A0
:1014900004911146039203F0DFFF41F2883000F01F
:1014A00083FA049805990860BDF9442000EE102ADB
:1014B000B8EEC00A0120039903F0CEFF4FF47A7012
:1014C00000F072FABDF8460000F0B6F812B080BD28
:1014D000000084427047000080B582B00020ADF863
:1014E0000400FFE702F006FE002801D0FFE7F9E75D
:1014F000FFE702F0FFFD002801D1FFE7F9E702F066
:10150000F9FDADF80400BDF90400012808D1FFE79A
:101510004FF4FA7000F048FA01208DF8070085E0DA
:10152000BDF90400022808D1FFE74FF4FA7000F07B
:101530003BFA02208DF8070078E0BDF9040003288B
:1015400008D1FFE74FF4FA7000F02EFA03208DF86F
:1015500007006BE0BDF90400052808D1FFE74FF450
:10156000FA7000F021FA04208DF807005EE0BDF962
:101570000400062808D1FFE74FF4FA7000F014FACF
:1015800005208DF8070051E0BDF90400072808D1B7
:10159000FFE74FF4FA7000F007FA06208DF8070015
:1015A00044E0BDF90400092808D1FFE74FF4FA70C0
:1015B00000F0FAF907208DF8070037E0BDF90400C4
:1015C0000A2808D1FFE74FF4FA7000F0EDF908207F
:1015D0008DF807002AE0BDF904000B2808D1FFE7C9
:1015E0004FF4FA7000F0E0F909208DF807001DE0D3
:1015F000BDF904000E2808D1FFE74FF4FA7000F09F
:10160000D3F900208DF8070010E0FFE7FFE7FFE7C0
:10161000FFE7FFE7FFE7FFE7FFE7FFE74FF4FA70B9
:1016200000F0C2F900208DF80700FFE79DF80700E1
:1016300002B080BD0000000080B584B00146ADF866
:101640000E000020ADF80C00BDF80E00B0F5967F3E
:10165000029105DDFFE74FF49670ADF80E00FFE74D
:10166000BDF80E00C72804DCFFE7C820ADF80E0067
:10167000FFE7BDF80E00FEF727FF41EC100B9FEDD2
:101680001C1B53EC112B51EC100BFEF790FE41ECA0
:10169000100B51EC100B9FED180B53EC102BFEF7B9
:1016A000DFFD41EC100B51EC100BFEF71EFFADF807
:1016B0000C0040F23020C2F2000003A901220A23EC
:1016C00002F050FC49F66511C0F600010190084691
:1016D00006F046F84FF4FA610090084600F064F90D
:1016E00041F2243000F0E8F804B080BD00BF00BF34
:1016F000FBCBEEC9C342E53FBA490C022B1F51C0D8
:1017000070470000B0B589B09C4696460C46054629
:101710000890079106920593002004900598B0F573
:10172000804FCDF80CC0CDF808E00194009522D18F
:10173000FFE70898069950F82100049004980021CA
:10174000CCF6F071084004900798016842688368FD
:10175000D0F80CC041EA021141EA032141EA0C41F0
:101760008069084304990843049004980899069AEC
:1017700041F8220006E0089806996FF0704240F8A0
:101780002120FFE7002009B0B0BD000010B585B0F2
:101790000A4603460490039100200290049803999E
:1017A000096850F82100029002988021CFF6F0716C
:1017B0000840029003984168D0F808C0D0F80CE0C7
:1017C000046941EA0C0141EA0E012143D0F814C03A
:1017D00041EA0C01D0F818C041EA0C01D0F81CC055
:1017E00041EA0C01D0F820C041EA0C01D0F824C035
:1017F00041EA0C01D0F828C041EA0C01D0F82CC015
:1018000041EA0C01D0F83CC041EA0C01006B0843EE
:101810000299084302900398806808280192009377
:1018200005D1FFE7029840F040000290FFE70298E0
:101830000499039A126841F82200002005B010BDF7
:1018400070B587B013468C46864606900591049283
:10185000002003900699049A01EB820149680391E4
:10186000039901F04041039105990A684C688D681D
:10187000CE6842EA041242EA052242EA06420C69B4
:101880000025CFF6F07505EB045422434C69FE3475
:1018900042EA046289691143039A1143039103994F
:1018A000069A049C02EB840251600293CDF804C0B6
:1018B000CDF800E007B070BD80B588B00146ADF846
:1018C0001E0040F23010C2F200000690059101F0B7
:1018D000DFFA06990490084601F004FA069903908D
:1018E000084601F097FABDF81E104CF2513E7145C2
:1018F000029001DBFFE728E040F23010C2F2000066
:1019000000680021416240F20040C4F202004FF43E
:10191000004201911146019A00F0B0FAFFE740F24F
:101920003010C2F200000068406ABDF81E10884204
:1019300001D2FFE7F3E740F20040C4F202004FF4A7
:101940000041012200F09AFAFFE708B080BD0000D4
:1019500040F21A00C2F20000B0F900007047000027
:1019600083B001460190019890F83500022800915B
:1019700007D0FFE701988021416501208DF80B0019
:101980000EE00198052180F8351001980068016883
:1019900021F001010160FFE700208DF80B00FFE757
:1019A0009DF80B0003B0704780B584B001460390EA
:1019B000009100F085FA029003980190019801309F
:1019C000002809D0FFE740F21000C2F200000078C2
:1019D000019908440190FFE7FFE700F071FADDF894
:1019E00008E0A0EB0E00DDF804E0704501D2FFE74F
:1019F000F3E704B080BD000080B58CB000200B90F0
:101A00000A9009900890079040F22000C2F200006E
:101A10000068002801D0FFE745E040F22000C2F254
:101A2000000001210160FFE70020069043F6380026
:101A3000C4F20200016841F001010160006800F099
:101A40000100069006980590FFE74FF6807007901A
:101A5000022008900021099103220A920C230B9383
:101A600041F2000CC4F2020C0DF11C0E0490604611
:101A70000391714602920193CDF800E000F016F850
:101A80004EF2B37007900498089003990991029A56
:101A90000A92019B0B9340F60040C4F202000099A9
:101AA00000F004F8FFE70CB080BD000091B00A46DA
:101AB000034610900F9100200D900C900B900E900B
:101AC00009920893FFE70E980F2800F2D481FFE7F0
:101AD0000E98012101FA00F00D900F9800680D9901
:101AE00008400C900C980D99884240F0BF81FFE7A8
:101AF0000F984068022805D0FFE70F984068122829
:101B000026D1FFE710980E996FF0030202EA510107
:101B10000844006A0B900E9800F0070080000F2127
:101B200001FA00F00B9921EA00000B900F98006970
:101B30000E9901F00701890088400B9908430B902A
:101B40000B9810990E9B02EA530211440862FFE7BA
:101B5000109800680B900E984000032101FA00F0E5
:101B60000B9921EA00000B900F98406800F00300E9
:101B70000E99490088400B9908430B900B981099D7
:101B800008600F98406801280FD0FFE70F98406861
:101B900002280AD0FFE70F984068112805D0FFE718
:101BA0000F98406812282FD1FFE7109880680B909B
:101BB0000E984000032101FA00F00B9921EA000081
:101BC0000B900F98C0680E99490088400B99084304
:101BD0000B900B9810998860109840680B900E98A5
:101BE000012101FA00F00B9921EA00000B900F98F7
:101BF0004068C0F300100E9988400B9908430B9081
:101C00000B9810994860FFE71098C0680B900E98E9
:101C10004000032101FA00F00B9921EA00000B902B
:101C20000F9880680E99490088400B9908430B90E3
:101C30000B981099C8600F984068C000002840F1C8
:101C40001481FFE7FFE700200A9043F64400C4F246
:101C50000200016841F480410160006800F48040A6
:101C60000A900A980790FFE70E9820F0030043F6C9
:101C70000801C4F2010140580B900E9800F00300D7
:101C800080000F2101FA00F00B9921EA00000B906F
:101C900010980021C4F20201884203D1FFE700201E
:101CA00006905EE0109840F20041C4F202018842C2
:101CB00003D1FFE70120059050E0109840F60001A5
:101CC000C4F20201884203D1FFE70220049042E0FF
:101CD000109840F60041C4F20201884203D1FFE7A8
:101CE0000320039034E0109841F20001C4F2020195
:101CF000884203D1FFE70420029026E0109841F2C9
:101D00000041C4F20201884203D1FFE7052001909F
:101D100018E0109841F60001C4F20201884203D194
:101D2000FFE7062000900AE0109841F60041C4F257
:101D300002010822884208BF07220092FFE70098AC
:101D40000190FFE701980290FFE702980390FFE7F8
:101D500003980490FFE704980590FFE70598069024
:101D6000FFE70698C0B20E9901F003018900884090
:101D70000B9908430B900B980E9921F0030143F641
:101D80000802C4F20102885043F60040C4F2010088
:101D900000680B900C980B9921EA00000B900F98AB
:101DA0004068C003002805D5FFE70C980B9908434D
:101DB0000B90FFE70B9843F60041C4F20101086065
:101DC00043F60440C4F2010000680B900C980B9994
:101DD00021EA00000B900F9840688003002805D589
:101DE000FFE70C980B9908430B90FFE70B9843F61D
:101DF0000441C4F20101086043F60840C4F2010046
:101E000000680B900C980B9921EA00000B900F983A
:101E10004068C002002805D5FFE70C980B990843DD
:101E20000B90FFE70B9843F60841C4F201010860EC
:101E300043F60C40C4F2010000680B900C980B991B
:101E400021EA00000B900F9840688002002805D519
:101E5000FFE70C980B9908430B90FFE70B9843F6AC
:101E60000C41C4F201010860FFE7FFE7FFE70E98AD
:101E700001300E9027E611B07047000080B585B0A4
:101E800013468C4686460490ADF80E108DF80D2052
:101E90009DF80D0000280293CDF804C0CDF800E0B5
:101EA00005D0FFE7BDF80E000499886105E0BDF894
:101EB0000E00000404998861FFE705B080BD0000B2
:101EC00040F29020C2F200000068704740F210001B
:101ED000C2F20000007840F29021C2F200010A68CC
:101EE000104408607047000080B582B043F600409F
:101EF000C4F20200016841F400710160016841F41C
:101F000080610160016841F480710160032000F08C
:101F1000A1F80020019000F007F8009000F040F8D0
:101F2000019802B080BD000080B584B001460290E7
:101F300040F20C00C2F20000006840F21002C2F24F
:101F4000000212784FF47A73B3FBF2F2B0FBF2F0B6
:101F5000019100F003FE002804D0FFE701208DF876
:101F60000F0018E002980F280DD8FFE702994FF0F4
:101F7000FF30002200F048F8029840F21401C2F24B
:101F80000001086003E001208DF80F0003E000204D
:101F90008DF80F00FFE79DF80F0004B080BD000032
:101FA00084B0FFE70020039043F64400C4F202002F
:101FB000016841F480410160006800F480400390B2
:101FC00003980190FFE7FFE70020029043F64000EE
:101FD000C4F20200016841F080510160006800F025
:101FE0008050029002980090FFE704B07047000014
:101FF00080B582B001468DF807009DF90700009179
:1020000005F006FB02B080BD80B58AB013468C4651
:1020100086468DF8270008910792002006900593C8
:10202000CDF810C0CDF80CE005F00EFB06909DF940
:1020300027000699089A079B0290084611461A46FF
:1020400003F092FD029901900846019905F004FB06
:102050000AB080BD80B582B0014601900198009120
:1020600005F020FB02B080BD80B588B00A4603466B
:1020700006900591069800280392029304D1FFE789
:1020800001208DF81F0025E1059843F60041C4F2B8
:102090000201096801F00F01884212D9FFE7059893
:1020A00043F60041C4F202010870086800F00F0016
:1020B0000599884204D0FFE701208DF81F0009E14F
:1020C000FFE706980068800700282AD5FFE70698F2
:1020D00000684007002809D5FFE743F60800C4F26E
:1020E0000200016841F4E0510160FFE706980068D2
:1020F0000007002809D5FFE743F60800C4F20200F4
:10210000016841F460410160FFE743F60800C4F252
:102110000200016821F0F001069A92681143016003
:10212000FFE706980068C007002870D0FFE7069810
:102130004068012811D1FFE743F60000C4F2020015
:10214000006800F400300021B1EB504F04D1FFE7EC
:1021500001208DF81F00BDE02CE0069840680228A1
:1021600005D0FFE706984068032811D1FFE743F642
:102170000000C4F20200006800F000700021B1EB22
:10218000506F04D1FFE701208DF81F00A2E010E09E
:1021900043F60000C4F20200006800F002000021D3
:1021A000B1EB500F04D1FFE701208DF81F0091E043
:1021B000FFE7FFE743F60800C4F20200016821F0E0
:1021C0000301069A526811430160FFF779FE0490FB
:1021D000FFE743F60800C4F20200006800F00C00BC
:1021E00006994968B0EB810F10D0FFE7FFF768FE52
:1021F000DDF810E0A0EB0E0041F2893E704504D3FB
:10220000FFE703208DF81F0064E0E2E7FFE7059891
:1022100043F60041C4F20201096801F00F0188424F
:1022200012D2FFE7059843F60041C4F2020108709C
:10223000086800F00F000599884204D0FFE70120EC
:102240008DF81F0046E0FFE7069800684007002869
:102250000CD5FFE743F60800C4F20200016821F440
:10226000E051069AD26811430160FFE706980068C2
:10227000000700280DD5FFE743F60800C4F202006E
:10228000016821F46041069A126941EAC2010160C5
:10229000FFE700F053F843F6080EC4F2020EDEF832
:1022A00000E05FFA8EFE4FEA1E1E48F27411C0F67F
:1022B000000111F80E10C84040F20C01C2F20001FA
:1022C000086000200190FFF72FFE01998DF81F1084
:1022D0000090FFE79DF81F0008B080BD40F20C00A1
:1022E000C2F200000068704780B5FFF7F7FF43F6C1
:1022F000080EC4F2020EDEF800E0CEF3822E48F2A1
:102300008411C0F6000111F80E10C84080BD000015
:1023100080B5FFF7E3FF43F6080EC4F2020EDEF8C5
:1023200000E01FFA8EFE4FEA5E3E48F28411C0F6CE
:10233000000111F80E10C84080BD000080B586B0C5
:102340000020059004900390029043F60800C4F228
:102350000200006800F00C0001460028019108D03E
:10236000FFE7019804280AD0FFE7019808280CD05D
:102370004FE042F20040C0F2F40002904FE047F616
:102380004000C0F27D10029049E043F60400C4F220
:102390000200016801F03F01059100684002002839
:1023A00013D5FFE743F60400C4F202000068C0F34F
:1023B000881047F64001C0F27D11A0FB0101059A8B
:1023C0000023FDF7FDFE049012E043F60400C4F282
:1023D00002000068C0F3881042F20041C0F2F4012C
:1023E000A0FB0101059A0023FDF7EAFE0490FFE738
:1023F00043F60400C4F20200006800F440300221F9
:1024000001EBD030039004980399B0FBF1F00290F7
:1024100005E042F20040C0F2F4000290FFE70298AB
:1024200006B080BD80B588B00146069006980028A9
:10243000029104D1FFE701208DF81F0027E30698E1
:102440000068C007002800F0AB80FFE743F60800F3
:10245000C4F20200006800F00C00042813D0FFE76B
:1024600043F60800C4F20200006800F00C000828DF
:102470001FD1FFE743F60400C4F2020000684002E7
:10248000002816D5FFE743F60000C4F202000068FA
:1024900000F400300021B1EB504F09D0FFE706985F
:1024A0004068002804D1FFE701208DF81F00EEE20C
:1024B00075E0FFE706984068B0F5803F09D1FFE777
:1024C00043F60000C4F20200016841F4803101606B
:1024D00020E006984068B0F5A02F0DD1FFE743F645
:1024E0000000C4F20200016841F48021016001682B
:1024F00041F4803101600CE043F60000C4F20200B8
:10250000016821F480310160016821F480210160BB
:10251000FFE7FFE7FFE70698406800281FD0FFE7C6
:10252000FFF7CEFC0590FFE743F60000C4F202007F
:10253000006800F400300021B1EB504F0ED1FFE7EE
:10254000FFF7BEFCDDF814E0A0EB0E00652804D315
:10255000FFE703208DF81F0099E2E5E71EE0FFF793
:10256000AFFC0590FFE743F60000C4F202000068EC
:1025700000F400300021B1EB504F0ED0FFE7FFF721
:102580009FFCDDF814E0A0EB0E00652804D3FFE704
:1025900003208DF81F007AE2E5E7FFE7FFE7FFE79A
:1025A000069800688007002840F19B80FFE743F60B
:1025B0000800C4F20200006810F00C0F13D0FFE70F
:1025C00043F60800C4F20200006800F00C0008287E
:1025D0002CD1FFE743F60400C4F202000068400279
:1025E000002823D4FFE743F60000C4F2020000688D
:1025F00000F002000021B1EB500F09D0FFE7069870
:10260000C068012804D0FFE701208DF81F003EE2DA
:1026100043F60000C4F20200016821F0F801069AB6
:10262000126941EAC2010160FFE759E00698C068FB
:10263000002830D0FFE70020C4F2472001210160CC
:10264000FFF73EFC0590FFE743F60000C4F20200EE
:10265000006800F002000021B1EB500F0ED1FFE73F
:10266000FFF72EFCDDF814E0A0EB0E00032804D3E6
:10267000FFE703208DF81F0009E2E5E743F60000BD
:10268000C4F20200016821F0F801069A126941EAD9
:10269000C201016023E00020C4F247200021016054
:1026A000FFF70EFC0590FFE743F60000C4F20200BE
:1026B000006800F002000021B1EB500F0ED0FFE7E0
:1026C000FFF7FEFBDDF814E0A0EB0E00032804D3B7
:1026D000FFE703208DF81F00D9E1E5E7FFE7FFE7FB
:1026E000FFE7069800680007002850D5FFE7069826
:1026F0004069002825D0FFE740F68060C4F24720FB
:1027000001210160FFF7DCFB0590FFE743F6740051
:10271000C4F20200006800F002000021B1EB500F8B
:102720000ED1FFE7FFF7CCFBDDF814E0A0EB0E00C5
:10273000032804D3FFE703208DF81F00A7E1E5E796
:1027400024E040F68060C4F2472000210160FFF7DA
:10275000B7FB0590FFE743F67400C4F2020000687F
:1027600000F002000021B1EB500F0ED0FFE7FFF7A1
:10277000A7FBDDF814E0A0EB0E00032804D3FFE76D
:1027800003208DF81F0082E1E5E7FFE7FFE70698E9
:1027900000684007002840F1D680FFE700208DF850
:1027A000130043F64000C4F202000068C000002895
:1027B00016D4FFE7FFE70020039043F64000C4F281
:1027C0000200016841F080510160006800F0805013
:1027D000039003980190FFE701208DF81300FFE7B5
:1027E00047F20000C4F200000068C005002824D4AD
:1027F000FFE747F20000C4F20000016841F4807175
:102800000160FFF75DFB0590FFE747F20000C4F2AF
:1028100000000068C00500280ED4FFE7FFF750FB5A
:10282000DDF814E0A0EB0E00032804D3FFE703203B
:102830008DF81F002BE1E8E7FFE7FFE706988068C7
:10284000012809D1FFE743F67000C4F202000168D5
:1028500041F0010101601FE00698806805280DD154
:10286000FFE743F67000C4F20200016841F0040182
:102870000160016841F0010101600CE043F6700065
:10288000C4F20200016821F001010160016821F039
:1028900004010160FFE7FFE7FFE706988068002872
:1028A00021D0FFE7FFF70CFB0590FFE743F6700030
:1028B000C4F20200006800F002000021B1EB500FEA
:1028C00010D1FFE7FFF7FCFADDF814E0A0EB0E00F3
:1028D00041F2893E704504D3FFE703208DF81F00C5
:1028E000D5E0E3E720E0FFF7EBFA0590FFE743F6DA
:1028F0007000C4F20200006800F002000021B1EB99
:10290000500F10D0FFE7FFF7DBFADDF814E0A0EB83
:102910000E0041F2893E704504D3FFE703208DF895
:102920001F00B4E0E3E7FFE79DF81300012809D199
:10293000FFE743F64000C4F20200016821F0805135
:102940000160FFE7FFE706988069002800F09B80A0
:10295000FFE743F60800C4F20200006800F00C0034
:10296000082800F08B80FFE706988069022860D174
:10297000FFE76020C4F2472000210160FFF7A0FAC2
:102980000590FFE743F60000C4F20200006800F083
:1029900000700021B1EB506F0ED0FFE7FFF790FA07
:1029A000DDF814E0A0EB0E00032804D3FFE70320BA
:1029B0008DF81F006BE0E5E70698C169026A436A7B
:1029C000D0F828C0114341EA83114FEACC324FF6C8
:1029D000FF739A43A2F580321143C06A41EA006056
:1029E00043F60401C4F2020108606020C4F24720EB
:1029F00001210160FFF764FA0590FFE743F600004C
:102A0000C4F20200006800F000700021B1EB506FCA
:102A10000ED1FFE7FFF754FADDF814E0A0EB0E004B
:102A2000032804D3FFE703208DF81F002FE0E5E71C
:102A300023E06020C4F2472000210160FFF740FA44
:102A40000590FFE743F60000C4F20200006800F0C2
:102A500000700021B1EB506F0ED0FFE7FFF730FAA6
:102A6000DDF814E0A0EB0E00032804D3FFE70320F9
:102A70008DF81F000BE0E5E7FFE703E001208DF88C
:102A80001F0004E0FFE700208DF81F00FFE79DF81E
:102A90001F0008B080BD000080B58EB013468C4684
:102AA00086460C900B910A920C9800280993CDF859
:102AB00020C0CDF81CE004D1FFE701208DF83700DD
:102AC0003DE00C9890F84900002808D1FFE70C98E9
:102AD000002180F848100C9800F036F8FFE70C98B9
:102AE00050F8081B069008460699FEF74FFE0C9911
:102AF000DDF82CE00A68896805901046049171465B
:102B0000049AFEF79DFE0C990A9AD1F804E08B68AE
:102B1000096B03907046029111461A46029BFEF71C
:102B2000F1FD0C990A68896852F8213043F00103DD
:102B300042F8213000218DF837100190FFE79DF811
:102B400037000EB080BD000080B582B00146019014
:102B50000091FEF751FF02B080BD000080B582B049
:102B6000014601900198009103F042F802B080BD47
:102B700082B001460190009102B0704782B00146D8
:102B80000190009102B0704786B00A460346049057
:102B900003910020029001920093FFE7049890F8BF
:102BA0003C00012804D1FFE702208DF8170044E023
:102BB0000498012180F83C10FFE7FFE7029820F01D
:102BC000FF000399C96808430290029820F44070FE
:102BD0000399896808430290029820F48060039961
:102BE000496808430290029820F40060039909683C
:102BF00008430290029820F4805003990969084321
:102C00000290029820F40050039949690843029009
:102C1000029820F480400399C96908430290029801
:102C2000049909684864FFE70498002180F83C1083
:102C3000FFE700208DF81700FFE79DF8170006B0AA
:102C40007047000087B00A46034605900491019240
:102C50000093FFE7059890F83C00012804D1FFE7B6
:102C600002208DF81B0039E00598012180F83C1006
:102C7000FFE7FFE70598022180F83D1005980068FE
:102C8000406803900598006880680290039820F0DF
:102C90007000039004980068039908430390029819
:102CA00020F0800002900498406802990843029046
:102CB0000398059909684860029805990968886031
:102CC0000598012180F83D10FFE70598002180F864
:102CD0003C10FFE700208DF81B00FFE79DF81B006C
:102CE00007B0704780B584B0014602900298002872
:102CF000019104D1FFE701208DF80F0021E0029837
:102D000090F83D00002808D1FFE70298002180F8E4
:102D10003C10029800F01AF8FFE70298022180F8B0
:102D20003D10029850F8041B00900846009903F0EB
:102D3000F9FA0298012180F83D1000208DF80F006B
:102D4000FFE79DF80F0004B080BD000080B58AB099
:102D500001460990099800680022C4F201029042DD
:102D6000059113D1FFE7FFE70020089043F64400E8
:102D7000C4F20200016841F001010160006800F046
:102D80000100089008980490FFE740E00998006867
:102D9000B0F1804F1DD1FFE7FFE70020079043F619
:102DA0004000C4F20200016841F0010101600068C6
:102DB00000F00100079007980390FFE71C20002116
:102DC00002900191019AFFF71FF90298FFF710F99D
:102DD0001CE00998006840F60041C4F200018842F6
:102DE00013D1FFE7FFE70020069043F64000C4F24E
:102DF0000200016841F008010160006800F008006D
:102E0000069006980090FFE7FFE7FFE7FFE70AB0AC
:102E100080BD000083B0014602900298022280F833
:102E20003D2002980068806800F00700019001983A
:102E30000628009107D0FFE702980068016841F07A
:102E400001010160FFE70298012180F83D10002098
:102E500003B0704783B00146029002980068C268D0
:102E600042F00102C26002980068806800F007002A
:102E7000019001980628009107D0FFE702980068AA
:102E8000016841F001010160FFE7002003B07047D5
:102E900082B0014601900198022280F83D20009105
:102EA000FFE701980068006A41F21111084210D151
:102EB000FFE701980068006A40F24441084207D1E8
:102EC000FFE701980068016821F001010160FFE758
:102ED000FFE7FFE70198012180F83D10002002B0D4
:102EE0007047000082B00146019001980068C268F6
:102EF00022F00102C2600091FFE701980068006AB9
:102F000041F21111084210D1FFE701980068006AF0
:102F100040F24441084207D1FFE701980068016888
:102F200021F001010160FFE7FFE7FFE7002002B0A9
:102F30007047000080B58CB00A4603460A9009919C
:102F400007920693FFE70A9890F83C00012804D105
:102F5000FFE702208DF82F00B7E00A98012180F8E2
:102F60003C10FFE7FFE70A98022180F83D100A981D
:102F7000006880680890089820F07700089008980A
:102F800020F47F40089008980A9909688860099899
:102F900000680028059000F08280FFE7059810285F
:102FA0007DD0FFE70598202879D0FFE705983028E5
:102FB00075D0FFE70598402861D0FFE705985028B5
:102FC0003DD0FFE70598602849D0FFE705987028B5
:102FD0000BD0FFE70598B0F5805F05D0FFE70598B7
:102FE000B0F5005F19D061E061E00A9800680999C6
:102FF0004A688B68C96804911946049B03F08AFAF1
:103000000A98006880680890089840F07700089057
:1030100008980A990968886049E00A98006809993F
:103020004A688B68C96803911946039B03F072FADA
:103030000A980068816841F48041816037E00A980D
:10304000006809994A68C96802911146029A03F01A
:103050006DFC0A980068502103F082FA27E00A9874
:10306000006809994A68C96801911146019A03F0FC
:103070008FFC0A980068602103F072FA17E00A9842
:10308000006809994A68C96800911146009A03F0DE
:103090004DFC0A980068402103F062FA07E00A98A4
:1030A00000680999096803F05BFA00E0FFE70A98F5
:1030B000012180F83D10FFE70A98002180F83C10BC
:1030C000FFE700208DF82F00FFE79DF82F000CB0E0
:1030D00080BD000082B001460190009102B07047AF
:1030E00080B582B00146019001980068006900F047
:1030F00002000022B2EB500F009129D0FFE70198A7
:103100000068C06800F002000021B1EB500F1ED033
:10311000FFE7019800686FF0020101610198012149
:1031200001770198006880698007002804D0FFE7D4
:103130000198FFF7CFFF06E0019800F077F90198BA
:1031400000F064FAFFE7019800210177FFE7FFE74D
:1031500001980068006900F004000021B1EB900FB5
:1031600029D0FFE701980068C06800F00400002142
:10317000B1EB900F1ED0FFE7019800686FF00401DB
:10318000016101980221017701980068806910F4BB
:10319000407F04D0FFE70198FFF79CFF06E001980D
:1031A00000F044F9019800F031FAFFE7019800219E
:1031B0000177FFE7FFE701980068006900F0080069
:1031C0000021B1EBD00F29D0FFE701980068C0685B
:1031D00000F008000021B1EBD00F1ED0FFE70198EE
:1031E00000686FF0080101610198042101770198DE
:1031F0000068C0698007002804D0FFE70198FFF746
:1032000069FF06E0019800F011F9019800F0FEF95D
:10321000FFE7019800210177FFE7FFE701980068C9
:10322000006900F010000021B1EB101F29D0FFE76A
:1032300001980068C06800F010000021B1EB101F79
:103240001ED0FFE7019800686FF01001016101983E
:103250000821017701980068C06910F4407F04D00C
:10326000FFE70198FFF736FF06E0019800F0DEF86F
:10327000019800F0CBF9FFE7019800210177FFE703
:10328000FFE7019800680069C007002811D0FFE738
:1032900001980068C068C007002809D0FFE70198BE
:1032A00000686FF001010161019800F065FAFFE725
:1032B000FFE7019800680069C0B20021B1EBD01FA0
:1032C00013D0FFE701980068C068C0B20021B1EBDD
:1032D000D01F09D0FFE7019800686FF080010161FD
:1032E0000198FFF745FCFFE7FFE7019800680069D8
:1032F00000F040000021B1EB901F14D0FFE70198CF
:103300000068C06800F040000021B1EB901F09D0B8
:10331000FFE7019800686FF040010161019800F03B
:1033200097FAFFE7FFE701980068006900F02000C6
:103330000021B1EB501F14D0FFE701980068C0686E
:1033400000F020000021B1EB501F09D0FFE70198E9
:1033500000686FF0200101610198FFF70FFCFFE7A3
:10336000FFE702B080BD000080B58CB001460B9035
:1033700000200A9009900890079006900B9800682A
:103380000022C4F201029042039123D1FFE7FFE73C
:103390000020059043F63000C4F20200016841F0BD
:1033A00001010160006800F001000590059802909D
:1033B000FFE74FF4807006900220079000200890ED
:1033C000099001200A900020C4F2020006A9FEF72D
:1033D0006DFB28E00B980068B0F1804F22D1FFE729
:1033E000FFE70020049043F63000C4F202000168B9
:1033F00041F001010160006800F0010004900498B0
:103400000190FFE7202006900220079000200890FE
:10341000099001200A900020C4F2020006A9FEF7DC
:1034200045FBFFE7FFE70CB080BD000082B001461E
:103430000190009102B0704780B588B013468C4669
:1034400086460690059104920393CDF808C0CDF806
:1034500004E0FFE7069890F83C00012804D1FFE75C
:1034600002208DF81F0093E00698012180F83C109F
:10347000FFE7FFE70698022180F83D1004980C282A
:10348000009000F276800099DFE801F00773737313
:10349000227373733D73737358000698006805991F
:1034A00003F078F806980068816941F008018161AD
:1034B00006980068816921F004018161059800691E
:1034C00006990968D1F818E040EA0E00886151E0D9
:1034D00006980068059903F0D7F806980068816996
:1034E00041F40061816106980068816921F480617E
:1034F00081610598006906990968D1F818E04EEADB
:103500000020886136E006980068059903F03AF9D2
:1035100006980068C16941F00801C1610698006819
:10352000C16921F00401C161059800690699096823
:10353000D1F81CE040EA0E00C8611BE00698006864
:10354000059903F09DF906980068C16941F400618E
:10355000C16106980068C16921F48061C161059864
:10356000006906990968D1F81CE04EEA0020C8619C
:1035700000E0FFE70698012180F83D10FFE706987C
:10358000002180F83C10FFE700208DF81F00FFE7C6
:103590009DF81F0008B080BD80B584B00146029040
:1035A00002980028019104D1FFE701208DF80F0057
:1035B00021E0029890F83D00002808D1FFE702982A
:1035C000002180F83C10029800F01AF8FFE70298FA
:1035D000022180F83D10029850F8041B0090084624
:1035E000009902F09FFE0298012180F83D10002012
:1035F0008DF80F00FFE79DF80F0004B080BD0000BC
:1036000082B001460190009102B0704782B001463D
:103610000190009102B0704780B588B00A46034619
:10362000079006910798006806994FF0010C0492E4
:1036300062460393CDF808C002F046FF0798006881
:1036400002990022C4F20102904201910CD0FFE7DE
:10365000079800684FF60041CBF6FE710844B0FAB7
:1036600080F040090190FFE70198C007002807D0CB
:10367000FFE707980068416C41F400414164FFE7AF
:1036800007980068806800F00700059005980628F4
:1036900007D0FFE707980068016841F00101016069
:1036A000FFE7002008B080BD80B586B00A4603461B
:1036B000059004910598006804994FF0000C03925E
:1036C0006246029302F000FF059800680121002283
:1036D000C4F20102904201910CD0FFE70598006806
:1036E0004FF60041CBF6FE710844B0FA80F0400975
:1036F0000190FFE70198C00700281BD0FFE7FFE714
:1037000005980068006A41F21111084210D1FFE7E4
:1037100005980068006A40F24441084207D1FFE77B
:1037200005980068416C21F400414164FFE7FFE720
:10373000FFE7FFE7FFE705980068006A41F2111113
:10374000084210D1FFE705980068006A40F2444142
:10375000084207D1FFE705980068016821F00101E0
:103760000160FFE7FFE7FFE70598012180F83D10C2
:10377000002006B080BD000080B586B001460590EF
:10378000059840F2F002C2F20002904204915CD12E
:10379000FFE740F22800C2F2000001680131016039
:1037A000006840F22C01C2F20001096888424BD146
:1037B000FFE740F22800C2F200000068002843D072
:1037C000FFE740F22C00C2F20000006800283BD066
:1037D000FFE740F2F000C2F2000000210391FFF782
:1037E00063FF40F25401C2F20001DDF80CE0C1F8C1
:1037F00000E040F28821C2F2000101220A6040F29A
:103800005801C2F2000109680129029007D1FFE7BF
:1038100040F25800C2F200000021016006E040F2D0
:103820005800C2F2000001210160FFE740F22800C9
:10383000C2F200000021016040F2F000C2F200007C
:10384000FFF750FB0190FFE7FFE706B080BD0000E7
:1038500082B001460190009102B0704782B00146EB
:103860000190009102B0704780B58CB001460B907A
:103870000B98006800680A900B980068C06809906F
:103880000B980068406908900020079006900A98FD
:1038900000F00F00079007980028059112D1FFE76C
:1038A0009DF82800800600280BD5FFE79DF824002E
:1038B0008006002805D5FFE70B9803F0D9F804909F
:1038C000E0E0FFE70798002800F0BA80FFE79DF8E6
:1038D0002000C007002807D1FFE7BDF8240010F43E
:1038E000907F00F0AD80FFE79DF82800C00700281A
:1038F0000CD0FFE79DF82500C007002806D0FFE7A1
:103900000B98C16B41F00101C163FFE79DF82800EE
:10391000400700280CD5FFE79DF82000C0070028CD
:1039200006D0FFE70B98C16B41F00201C163FFE7CE
:103930009DF82800800700280CD5FFE79DF820009F
:10394000C007002806D0FFE70B98C16B41F00401C7
:10395000C163FFE79DF82800000700280CD5FFE7AA
:103960009DF82000C007002806D0FFE70B98C16B28
:1039700041F00801C163FFE70B98C06B00285ED0DF
:10398000FFE79DF82800800600280BD5FFE79DF88B
:1039900024008006002805D5FFE70B9803F068F89F
:1039A0000390FFE70B9800684069C0F38010069011
:1039B0000B98C06B0007002804D4FFE70698002886
:1039C00033D0FFE70B9803F027F80B9800684069A5
:1039D0004006002824D5FFE70B980068416921F0D4
:1039E000400141610B98406B002814D0FFE70B9811
:1039F000406B46F6F511C0F6000101650B98406B6F
:103A0000FDF7AEFF002805D0FFE70B98406B016D76
:103A10008847FFE703E00B98FFF720FFFFE703E08D
:103A20000B98FFF71BFFFFE708E00B98FFF716FF67
:103A30000B984FF0000EC0F83CE0FFE7FFE721E0F5
:103A40009DF82800000600280BD5FFE79DF824000C
:103A50000006002805D5FFE70B9803F0B9FA02909D
:103A600010E09DF82800400600280BD5FFE79DF8E0
:103A700024004006002805D5FFE70B9802F0E2FF7E
:103A80000190FFE70CB080BD80B584B00146029084
:103A900002980028019104D1FFE701208DF80F0062
:103AA00041E002988069002801D0FFE700E0FFE7CD
:103AB000029890F83900002808D1FFE70298002109
:103AC00080F83810029800F033F8FFE702982421BC
:103AD00080F8391002980068C16821F40051C16073
:103AE000029803F041F802980068016921F49041BE
:103AF000016102980068416921F02A014161029840
:103B00000068C16841F40051C16002980021C1639E
:103B100002984FF0200E80F839E0029880F83AE0E1
:103B20008DF80F10FFE79DF80F0004B080BD000076
:103B300080B5AAB0014629900020289027902690B1
:103B4000259024902998006844F60042C4F20002AF
:103B50009042199162D1FFE7FFE70020239043F6DE
:103B60004000C4F20200016841F4002101600068D5
:103B700000F40020239023981890FFE7FFE700202F
:103B8000229043F63000C4F20200016841F00101C6
:103B90000160006800F00100229022981790FFE772
:103BA000FFE70020219043F63000C4F202000168D4
:103BB00041F004010160006800F0040021902198A8
:103BC0001690FFE7022024902590012126910322E0
:103BD00027920823289340F2000CC4F2020C0DF146
:103BE000900E159060461491714613921293CDF881
:103BF00044E0FDF75BFF4FF480602490159825901A
:103C000014992691139A2792129B289340F600004C
:103C1000C4F202001199FDF749FF0DE129980068EF
:103C200041F20001C4F2010188426CD1FFE7FFE7D5
:103C30000020209043F64400C4F20200016841F0E5
:103C400010010160006800F0100020902098109092
:103C5000FFE7FFE700201F9043F63000C4F20200A8
:103C6000016841F001010160006800F001001F904F
:103C70001F980F90FFE7FFE700201E9043F63000EB
:103C8000C4F20200016841F002010160006800F026
:103C900002001E901E980E90FFE74FF48060249063
:103CA00002202590012126910322279207232893A1
:103CB00040F2000CC4F2020C0DF1900E0D90604623
:103CC0000C9171460B920A93CDF824E0FDF7EEFEBD
:103CD000402024900D9825900C9926910B9A2792BC
:103CE0000A9B289340F20040C4F202000999FDF7B4
:103CF000DDFE2520002208900C99FEF785F9089832
:103D0000FEF776F997E02998006844F20041C4F282
:103D10000001884241D1FFE7FFE700201D9043F6F4
:103D20004000C4F20200016841F400310160006803
:103D300000F400301D901D980790FFE7FFE700207A
:103D40001C9043F63000C4F20200016841F001010A
:103D50000160006800F001001C901C980690FFE7CD
:103D60000C202490022025900121269103212791E7
:103D7000072128910021C4F2020124AA05900846D7
:103D80001146FDF793FE2620002204900599FEF7C8
:103D90003BF90498FEF72CF94CE02998006844F6AA
:103DA0000001C4F20001884243D1FFE7FFE7002091
:103DB0001B9043F64000C4F20200016841F48021E8
:103DC0000160006800F480201B901B980390FFE7BF
:103DD000FFE700201A9043F63000C4F202000168A9
:103DE00041F002010160006800F002001A901A9888
:103DF0000290FFE74FF440602490022025900120BC
:103E00002690032027900721289140F20041C4F218
:103E1000020124AA019008461146FDF747FE27201B
:103E2000002200900199FEF7EFF80098FEF7E0F805
:103E3000FFE7FFE7FFE7FFE72AB080BD80B587B067
:103E400013468C46864605900491ADF80E200598E1
:103E500090F83A0020280293CDF804C0CDF800E095
:103E60004CD1FFE70498002805D0FFE7BDF80E000D
:103E7000002804D1FFE701208DF81B0042E0FFE796
:103E8000059890F83800012804D1FFE702208DF84A
:103E90001B0037E00598012180F83810FFE7FFE7A5
:103EA000049805998862BDF80E0005998885BDF8CB
:103EB0000E000599C88505980021C1630598222147
:103EC00080F83A10FFE70598002180F83810FFE7E6
:103ED00005980068C16841F48071C1600598006868
:103EE000416941F00101416105980068C16841F0F4
:103EF0002001C16000208DF81B0003E002208DF836
:103F00001B00FFE79DF81B0007B080BD80B582B0A5
:103F1000014601900198006844F60002C4F20002D4
:103F20009042009103D1FFE703F0AEF9FFE701985B
:103F3000006841F20001C4F20101884203D1FFE7A9
:103F400003F0AEFAFFE70198006844F20041C4F2C2
:103F50000001884203D1FFE703F0B2F9FFE702B0A6
:103F600080BD0000B0B58CB09C4696460C46054618
:103F70000A900991ADF822200793002005900A9835
:103F800090F839002028CDF810C0CDF80CE002944C
:103F9000019540F09F80FFE70998002805D0FFE7D2
:103FA000BDF82200002804D1FFE701208DF82F0082
:103FB00094E0FFE70A9890F83800012804D1FFE761
:103FC00002208DF82F0089E00A98012180F838102E
:103FD000FFE7FFE70A980021C1630A98212180F8D2
:103FE0003910FDF76DFF0590BDF822000A9988840D
:103FF000BDF822000A99C884FFE70A98C08C0028FF
:104000004AD0FFE70A98C18C0139C1840A988068B8
:10401000B0F5805F27D1FFE70A98059B07996A46AC
:1040200011608021002203F027F8002804D0FFE768
:1040300003208DF82F0051E009980690069800881B
:104040006FF35F200A99096848600A9800690028A0
:1040500004D1FFE709980230099003E00998013084
:104060000990FFE717E00A98059B07996A461160D7
:104070008021002203F000F8002804D0FFE703208D
:104080008DF82F002AE00998411C099100780A99BF
:1040900009684860FFE7B0E70A98059B07996A46F8
:1040A00011604021002202F0E7FF002804D0FFE762
:1040B00003208DF82F0011E00A98202180F8391094
:1040C000FFE70A98002180F83810FFE700208DF8FC
:1040D0002F0003E002208DF82F00FFE79DF82F004E
:1040E0000CB0B0BD82B001460190009102B07047A3
:1040F000FFE7FEE780B58EB00020ADF8360040F651
:104100000001C4F202010F220C9008460B911146E7
:104110000C9AFDF7B3FE072101220B98FDF7AEFEC6
:1041200008210B980C9AFDF7A9FE40F61000C4F286
:104130000200006800F0F000F0283FD0FFE70A20FE
:10414000FDF732FC40F61000C4F20200006800F0F7
:10415000F000F02831D0FFE740F61000C4F2020072
:10416000006800F0F700ADF83400BDF834000146F7
:1041700077280A9118D0FFE70A98B72810D0FFE7F0
:104180000A98D72808D0FFE70A98E72810D1FFE758
:104190000120ADF836000FE00220ADF836000BE04C
:1041A0000320ADF8360007E00420ADF8360003E048
:1041B0000020ADF83600FFE7FFE7FFE740F600001C
:1041C000C4F202000F21002209900892FDF756FE6A
:1041D0000B2101220998FDF751FE04210998089A44
:1041E000FDF74CFE40F61000C4F20200006800F03B
:1041F000F000F0283FD0FFE70A20FDF7D5FB40F69E
:104200001000C4F20200006800F0F000F02831D085
:10421000FFE740F61000C4F20200006800F0FB0067
:10422000ADF83400BDF8340001467B28079118D062
:10423000FFE70798BB2810D0FFE70798DB2808D0D6
:10424000FFE70798EB2810D1FFE70520ADF836000F
:104250000FE00620ADF836000BE00720ADF8360081
:1042600007E00820ADF8360003E00020ADF8360086
:10427000FFE7FFE7FFE740F60000C4F202000F216E
:10428000002206900592FDF7F9FD0D210122069806
:10429000FDF7F4FD02210698059AFDF7EFFD40F6C3
:1042A0001000C4F20200006800F0F000F0283FD0D7
:1042B000FFE70A20FDF778FB40F61000C4F2020089
:1042C000006800F0F000F02831D0FFE740F6100061
:1042D000C4F20200006800F0FD00ADF83400BDF843
:1042E000340001467D28049118D0FFE70498BD28CA
:1042F00010D0FFE70498DD2808D0FFE70498ED28E8
:1043000010D1FFE70920ADF836000FE00A20ADF824
:1043100036000BE00B20ADF8360007E00C20ADF8BE
:10432000360003E00020ADF83600FFE7FFE7FFE7C7
:1043300040F60000C4F202000F2100220390029216
:10434000FDF79CFD0E210120039A01901046019A71
:10435000FDF794FD03980199029AFDF78FFD40F651
:104360001000C4F20200006800F0F000F0283FD016
:10437000FFE70A20FDF718FB40F61000C4F2020028
:10438000006800F0F000F02831D0FFE740F61000A0
:10439000C4F20200006800F0FE00ADF83400BDF881
:1043A000340001467E28009118D0FFE70098BE280F
:1043B00010D0FFE70098DE2808D0FFE70098EE282D
:1043C00010D1FFE70D20ADF836000FE00E20ADF85C
:1043D00036000BE00F20ADF8360007E01020ADF8F6
:1043E000360003E00020ADF83600FFE7FFE7FFE707
:1043F000BDF836000EB080BD80B588B00146ADF87E
:104400001E000020069040F27020C2F200000288D8
:1044100005924288059B5A430592808846F604021D
:104420009042049120D1FFE740F27020C2F20000D8
:104430008079012818D1FFE740F27020C2F2000015
:10444000002181712A2242812B2383810390084617
:104450000292019300F01AFD0120039988710198DE
:104460004881029A8A8105E000200090009900F0BE
:104470000DFDFFE700F070FF4FF0000ECDF818E0E3
:10448000FFE70698059988420BD2FFE7BDF81E00AA
:104490000021C6F208010880FFE706980130069067
:1044A000EFE708B080BD000080B582B001468DF80E
:1044B00007009DF807000028009176D1FFE740F241
:1044C0007020C2F2000000218171F02101804FF4C0
:1044D000A0714180808849F24131884214D0FFE7C1
:1044E00040F27020C2F20000808846F60401884243
:1044F0000AD0FFE740F27020C2F20000808845F247
:104500001031884226D1FFE740F27020C2F200004D
:104510002C2101812A2141812B218181808846F62D
:10452000040188420AD0FFE740F27020C2F2000086
:10453000808845F2103188420BD1FFE740F27020AD
:10454000C2F200004FF4A07101804FF4F07141807D
:10455000FFE729E040F27020C2F20000808845F2B7
:104560001051884214D1FFE740F27020C2F20000DF
:104570004FF4305101814FF4285141814FF42C51B7
:1045800081814FF4F07101804FF4487141800AE05D
:1045900040F27020C2F200002221018120214181DD
:1045A00021218181FFE7FFE785E040F27020C2F220
:1045B0000000012181714FF4A0710180F021418040
:1045C000808849F2413188420AD0FFE740F27020EA
:1045D000C2F20000808845F2103188420BD1FFE71B
:1045E00040F27020C2F200002C2101812A21418179
:1045F0002B2181813FE040F27020C2F200008088D0
:1046000046F6040188420BD1FFE740F27020C2F267
:1046100000002C2101812B2141812A21818129E067
:1046200040F27020C2F20000808845F210518842AA
:1046300014D1FFE740F27020C2F200004FF4305175
:1046400001814FF4285141814FF42C5181814FF465
:10465000487101804FF4F07141800AE040F270200F
:10466000C2F200002221018121214181202181818A
:10467000FFE7FFE7FFE740F27020C2F2000080880A
:1046800046F6040188420AD0FFE740F27020C2F2E9
:104690000000808845F2103188420BD1FFE740F2DC
:1046A0007020C2F200004FF4F07101804FF4A0714D
:1046B0004180FFE7FFE7002000F0CAF902B080BDAB
:1046C000B0B590B09C4696460C460546ADF83E0007
:1046D000ADF83C10ADF83A20ADF8383000200C9021
:1046E0000B90BDF83A00BDF83E10401A0A90BDF894
:1046F0003800BDF83C10401A0990BDF83E00059006
:10470000BDF83C0004900A980128CDF80CC0CDF803
:1047100008E00194009503DBFFE7012007900EE01D
:104720000A98002803D1FFE70020079006E04FF029
:10473000FF3007900A9840420A90FFE7FFE7099888
:10474000012803DBFFE7012006900EE0099800280E
:1047500003D1FFE70020069006E04FF0FF300690FF
:10476000099840420990FFE7FFE70A9809998842B3
:1047700003DDFFE70A98089002E009980890FFE738
:104780000020ADF83600FFE7BDF83600089901318A
:10479000884231DCFFE7BDF81400BDF8101000F0CE
:1047A0002DF80A980C9908440C9009980B99084424
:1047B0000B900C980899884209DDFFE708980C993E
:1047C000081A0C900798059908440590FFE70B9884
:1047D0000899884209DDFFE708980B99081A0B90A1
:1047E0000698049908440490FFE7FFE7BDF83600F7
:1047F0000130ADF83600C7E710B0B0BD80B584B069
:104800000A460346ADF80E00ADF80C10BDF80E00D8
:10481000BDF80C100292019300F038FB00F09CFDF3
:1048200040F22400C2F2000000880021C6F2080114
:10483000088004B080BD000080B58AB013468C4665
:104840008646ADF82600ADF82410ADF8222040F2DF
:104850007020C2F20000808849F2413188420793FB
:10486000CDF818C0CDF814E00AD0FFE740F2702070
:10487000C2F20000808845F2103188421ED1FFE765
:1048800040F27020C2F2000041890490084600F016
:1048900051FD9DF8270000F03BFD9DF8260000F03B
:1048A00037FD0498808900F045FD9DF8250000F053
:1048B0002FFD9DF8240000F02BFD98E040F27020C1
:1048C000C2F20000808845F2105188422AD1FFE7E9
:1048D00040F27020C2F2000041890390084600F0C7
:1048E00029FD9DF8270000F013FD0398418901314F
:1048F00088B200F01FFD9DF8260000F009FD039826
:10490000808900F017FD9DF8250000F001FD039857
:104910008189013188B200F00DFD9DF8240000F07E
:10492000F7FC63E040F27020C2F20000808846F697
:104930000401884232D1FFE740F27020C2F2000049
:10494000807901280CD1FFE740F27020C2F200000C
:1049500000880138BDF82610401AADF82600FFE7A0
:1049600040F27020C2F2000041890290084600F037
:10497000E1FC9DF8270000F0CBFC9DF8260000F03C
:10498000C7FC0298808900F0D5FC9DF8250000F056
:10499000BFFC9DF8240000F0BBFC26E040F2702034
:1049A000C2F20000807901280CD1FFE740F27020AC
:1049B000C2F2000000880138BDF82610401AADF898
:1049C0002600FFE740F27020C2F200004189BDF8E6
:1049D000262001900846114600F0CAFC0198808903
:1049E000BDF8241000F0C4FCFFE7FFE7FFE740F24A
:1049F0007020C2F2000000894FF6FE71C6F2070176
:104A00000880BDF822000021C6F2080108800AB023
:104A100080BD000081B00020C6F208000088ADF81B
:104A20000200BDF8020001B07047000080B582B0FE
:104A30000146ADF80600BDF80600009100F07AFCD2
:104A40000520FCF7B1FFFFF7E5FF02B080BD0000D5
:104A500080B58AB001468DF827000020ADF824000B
:104A6000ADF8220040F27020C2F2000080790128E7
:104A7000079138D1FFE740F27020C2F20000808831
:104A800046F6040188422ED0FFE79DF82700014634
:104A90000728069126D80699DFE801F004080C10D3
:104AA00014181C2006208DF827001BE007208DF825
:104AB000270017E004208DF8270013E005208DF86B
:104AC00027000FE001208DF827000BE000208DF873
:104AD000270007E003208DF8270003E002208DF86F
:104AE0002700FFE7FFE740F27020C2F20000808855
:104AF00049F2413188421FD0FFE740F27020C2F2F4
:104B00000000808846F60401884215D0FFE740F295
:104B10007020C2F20000808845F2103188420BD02C
:104B2000FFE740F27020C2F20000808845F2105189
:104B3000884240F05A81FFE79DF827000146072888
:104B4000059138D80599DFE801F004050C131A2106
:104B5000282F30E0BDF8240040F08000ADF824009C
:104B600029E0BDF8240040F04000ADF8240022E028
:104B7000BDF8240040F0C000ADF824001BE0BDF8F3
:104B8000240040F02000ADF8240014E0BDF824001B
:104B900040F06000ADF824000DE0BDF8240040F0C6
:104BA000A000ADF8240006E0BDF8240040F0E000CD
:104BB000ADF82400FFE740F27020C2F200008088C8
:104BC00045F21051884205D1FFE74FF45850ADF837
:104BD000220003E03620ADF82200FFE740F270200B
:104BE000C2F20000808845F21031884211D0FFE700
:104BF00040F27020C2F20000808845F210518842D5
:104C000007D0FFE7BDF8240040F00800ADF824000D
:104C1000FFE740F27020C2F20000808846F60401EF
:104C2000884207D1FFE7BDF8240040F00200ADF84C
:104C30002400FFE7BDF82200BDF8241000F098FB27
:104C4000BDF824008006002808D4FFE740F2702059
:104C5000C2F200008079012817D1FFE740F27020EE
:104C6000C2F200000188408881420DDAFFE740F27D
:104C70007020C2F200000188ADF820104188018048
:104C8000BDF820104180FFE716E040F27020C2F22C
:104C900000000188408881420DDDFFE740F270206E
:104CA000C2F200000188ADF8201041880180BDF8F3
:104CB00020104180FFE7FFE740F27020C2F20000C1
:104CC000808845F21051884259D1FFE740F27020A8
:104CD000C2F2000041890490084600F02BFB00203E
:104CE000039000F015FB04984189013188B200F06F
:104CF00021FB039800F00CFB04984189023188B233
:104D000000F018FB049801880139C1F30F2000F06E
:104D1000FFFA04984189033188B200F00BFB049834
:104D200001880139C8B200F0F3FA0498808900F0D4
:104D300001FB039800F0ECFA04988189013188B2F4
:104D400000F0F8FA039800F0E3FA04988189023140
:104D500088B200F0EFFA049841880139C1F30F20BE
:104D600000F0D6FA04988189033188B200F0E2FAA3
:104D7000049841880139C8B200F0CAFA34E040F220
:104D80007020C2F2000041890290084600F0D2FA79
:104D90000020019000F0BCFA019800F0B9FA0298E6
:104DA00001880139C1F30F2000F0B2FA029801889E
:104DB0000139C8B200F0ACFA0298808900F0BAFA62
:104DC000019800F0A5FA019800F0A2FA0298418833
:104DD0000139C1F30F2000F09BFA02984188013994
:104DE000C8B200F095FAFFE74EE09DF827000146B3
:104DF0000728009138D80099DFE801F0040B121958
:104E00001A21282FBDF8240040F03000ADF824000E
:104E10002AE0BDF8240040F01000ADF8240023E0A3
:104E2000BDF8240040F02000ADF824001CE01BE099
:104E3000BDF8240040F03800ADF8240014E0BDF8BF
:104E4000240040F02800ADF824000DE0BDF8240057
:104E500040F01800ADF8240006E0BDF8240040F052
:104E60000800ADF82400FFE70320ADF82200BDF8EC
:104E7000240040F48050ADF82400BDF82200BDF8B5
:104E8000241000F075FAFFE70AB080BD80B588B045
:104E90000A460346ADF81E00ADF81C1040F2702023
:104EA000C2F20000808849F241318842069205939F
:104EB0000AD0FFE740F27020C2F20000808845F27D
:104EC000103188421ED1FFE740F27020C2F200008C
:104ED00041890490084600F02DFA9DF81F0000F06B
:104EE00017FA9DF81E0000F013FA0498808900F06C
:104EF00021FA9DF81D0000F00BFA9DF81C0000F04F
:104F000007FA98E040F27020C2F20000808846F66E
:104F10000401884232D1FFE740F27020C2F2000063
:104F2000807901280CD1FFE740F27020C2F2000026
:104F300000880138BDF81E10401AADF81E00FFE7CA
:104F400040F27020C2F2000041890390084600F050
:104F5000F1F99DF81F0000F0DBF99DF81E0000F04C
:104F6000D7F90398808900F0E5F99DF81D0000F05D
:104F7000CFF99DF81C0000F0CBF95BE040F2702007
:104F8000C2F20000808845F2105188422AD1FFE722
:104F900040F27020C2F2000041890290084600F001
:104FA000C9F99DF81F0000F0B3F902984189013159
:104FB00088B200F0BFF99DF81E0000F0A9F9029830
:104FC000808900F0B7F99DF81D0000F0A1F9029862
:104FD0008189013188B200F0ADF99DF81C0000F024
:104FE00097F926E040F27020C2F200008079012893
:104FF0000CD1FFE740F27020C2F2000000880138B7
:10500000BDF81E10401AADF81E00FFE740F27020F8
:10501000C2F200004189BDF81E20019008461146E9
:1050200000F0A6F901988089BDF81C1000F0A0F9E5
:10503000FFE7FFE7FFE708B080BD000070B588B06C
:10504000DDF830C09E4614460D460646ADF81E00FB
:10505000ADF81C108DF81B208DF81A308DF819C092
:10506000BDF81C00ADF814009DF81A00C10801221B
:1050700002EBD0024307002B18BF11464FEA500045
:1050800001FB00F08DF813009DF81B00A0F120003B
:105090008DF81B004FF000008DF81600CDF80CE0E5
:1050A000029401950096FFE79DF816009DF81310F5
:1050B000884280F2B080FFE79DF81A000C2810D1DA
:1050C000FFE79DF81B0000EB400048F28C11C0F692
:1050D000000101EB80009DF81610405C8DF818006F
:1050E0002AE09DF81A0010280ED1FFE79DF81B005A
:1050F00048F20061C0F6000101EB00109DF81610A7
:10510000405C8DF8180016E09DF81A00182810D1A0
:10511000FFE79DF81B0000EBC00048F6F031C0F639
:10512000000101EB80009DF81610405C8DF818001E
:1051300000E070E0FFE7FFE700208DF81700FFE7D1
:105140009DF8170007285FDCFFE79DF818000006B0
:1051500000280CD5FFE7BDF81E00BDF81C1040F27A
:105160002402C2F200021288FFF766FB11E09DF8EC
:10517000190000280CD1FFE7BDF81E00BDF81C1077
:1051800040F20802C2F200021288FFF755FBFFE767
:10519000FFE79DF8180040008DF81800BDF81C00CE
:1051A0000130ADF81C00BDF81E0040F27021C2F2C3
:1051B00000010988884201DBFFE72CE0BDF81C00F4
:1051C000BDF81410401A9DF81A10884215D1FFE757
:1051D000BDF81400ADF81C00BDF81E000130ADF89C
:1051E0001E00BDF81E0040F27021C2F200010988C5
:1051F000884201DBFFE70EE006E0FFE79DF81700BD
:1052000001308DF817009BE7FFE79DF8160001308D
:105210008DF8160048E708B070BD0000F0B58BB0FF
:10522000DDF844C0DDF840E01C4615460E46074652
:10523000ADF82A00ADF82810ADF82620ADF82430DE
:105240008DF823E09DF82A008DF82200BDF82A0091
:10525000BDF826100844ADF82600BDF82800BDF8BA
:1052600024100844ADF82400CDF81CC00694059520
:1052700004960397FFE71198007800217E28029199
:1052800008DCFFE71198007800211F28C8BF012122
:105290000291FFE70298C007002836D0FFE7BDF86B
:1052A0002A00BDF8261088420CDBFFE79DF822009B
:1052B000ADF82A009DF82300BDF828100844ADF889
:1052C0002800FFE7BDF82800BDF82410884201DB64
:1052D000FFE71AE0BDF82A00BDF82810119A1278ED
:1052E0009DF82330EC464FF0000ECCF800E0FFF7BD
:1052F000A5FE9DF82300BDF82A1001EB5000ADF883
:105300002A00119801301190B5E70BB0F0BD0000F4
:1053100082B00146ADF80600BDF80600ADF8060003
:10532000BDF806000022C6F208021080009102B00B
:105330007047000082B00146ADF80600BDF80600D7
:10534000ADF80600BDF806004FF6FE72C6F2070281
:105350001080009102B0704740F27020C2F200004D
:1053600000894FF6FE71C6F2070108807047000001
:1053700083B00A460346ADF80A00ADF80810BDF840
:105380000A004FF6FE71C6F207010880BDF808005A
:105390000021C6F2080108800192009303B0704713
:1053A00070B58CB0DDF840C09E4614460D460646EA
:1053B0008DF82F000A910992ADF82230ADF820C087
:1053C00040F28C20C2F2000000680028CDF81CE0FA
:1053D0000694059504963CD1FFE79DF82F000A99A5
:1053E000099A00F079F840F21A00C2F20000B0F910
:1053F0000000BDF8221088422ADBFFE740F21A00C5
:10540000C2F20000B0F90000BDF8201088421FDC95
:10541000FFE740F28C20C2F200000121016040F25F
:105420008820C2F200000021016040F25400C2F264
:105430000000016040F2F000C2F200000390FEF7AD
:1054400033F9039902900846FDF74CFD0190FFE700
:1054500000E0FFE70CB070BD80B588B00A46B0EE42
:10546000401A03468DF81F008DED060A05919DF840
:105470001F009DED060A10EE101A049008460392D4
:105480008DED021A01938DED000AFBF74DF841EC0A
:10549000120B9FED0F3B53EC132B51EC120BFAF751
:1054A00086FF41EC120B51EC120BFBF71EF8B1EE2C
:1054B000040A9DED001A81EE000ABDEEC00A10EE4E
:1054C000101A0144059A049800F006F808B080BD4F
:1054D0001E442B2AF4A11C4080B588B013468C468C
:1054E00086468DF81F000691059240F28020C2F298
:1054F0000000012101609DF81F0001280493CDF8F0
:105500000CC0CDF808E009D1FFE741F20000C4F279
:10551000020001210022FCF7B1FC0FE09DF81F0002
:1055200000280AD1FFE741F20000C4F20200012185
:105530000191019AFCF7A2FCFFE7FFE7069840F211
:105540002C01C2F20001086040F25400C2F20000D7
:10555000006800280CD1FFE740F28820C2F200006A
:105560000068002804D1FFE7059800F047FEFFE738
:1055700008B080BD80B590B000200F900E900D90C7
:105580000C900B900A900990089007900690059057
:1055900004900390029040F26001C2F200014FF0CB
:1055A00020420A6040F20412CAF200024A60886097
:1055B000C860086110224A618861C8610862486257
:1055C0004FF480538B62C8624FF480430B6348638F
:1055D000886348640F2309930A934FF0180CCDF8A1
:1055E0002CC00C900D924FF0110CCDF838C00F90DC
:1055F0004FF0030ECDF808E00393022304930590C7
:105600000692CDF81CC0089009A802AA019008468D
:105610000199FDF741FA002803D0FFE7FCF770F885
:10562000FFE710B080BD000080B59AB0002019904F
:105630001890179016901590FFE70020149043F6ED
:105640003000C4F20200016841F00401016000680A
:1056500000F00400149014980E90FFE7FFE700207C
:10566000139043F63000C4F20200016841F080015B
:105670000160006800F08000139013980D90FFE720
:10568000FFE70020129043F63000C4F202000168E8
:1056900041F001010160006800F0010012901298D1
:1056A0000C90FFE7FFE70020119043F63000C4F2B2
:1056B0000200016841F002010160006800F0020090
:1056C000119011980B90FFE7FFE70020109043F630
:1056D0003000C4F20200016841F01001016000686E
:1056E00000F01000109010980A90FFE7FFE70020EC
:1056F0000F9043F63000C4F20200016841F0080147
:105700000160006800F008000F900F980990FFE713
:1057100040F60000C4F202000F2100220890079119
:105720000692FCF7ABFB40F20040C4F202000221FB
:1057300005900491069AFCF7A1FB4FF4004101206B
:10574000059A03901046039AFCF798FB41F200007B
:10575000C4F2020002900399039AFCF78FFB0298AF
:105760000499069AFCF78AFB0798159003991691FD
:10577000069A179218920DF1540E08987146CDF8BA
:1057800004E0FCF793F9F020159006981690039921
:10579000179108980199FCF789F948F202001590D1
:1057A0000398169006991791189105980199FCF79E
:1057B0007DF90320159003991691069A1792189077
:1057C00002980199FCF772F91AB080BD80B596B0C5
:1057D00000201590149013901290119010900F903B
:1057E0000E900D900C900B900A90099008900790E5
:1057F00006900590049003900290019040F2B00151
:10580000C2F200010022C4F201020A6053224A607F
:10581000886049F63F42CA6008614861886108466D
:10582000FDF760FA002803D0FFE7FBF769FFFFE709
:105830004FF48050129040F2B000C2F2000012A962
:10584000FDF778FB002803D0FFE7FBF759FFFFE7E0
:1058500040F2B000C2F20000FDF79EFE002803D027
:10586000FFE7FBF74DFFFFE700201090119040F29B
:10587000B000C2F2000010A9FDF7E4F9002803D03F
:10588000FFE7FBF73DFFFFE76020099000200A904B
:105890000B900C900D900E900F9040F2B001C2F260
:1058A000000109AA009008461146009AFDF7C4FDC0
:1058B000002803D0FFE7FBF723FFFFE7002001905C
:1058C00002900390049005904FF4005106910890C7
:1058D00040F2B000C2F2000001A9FDF755F900281E
:1058E00003D0FFE7FBF70CFFFFE740F2B000C2F286
:1058F0000000FDF739FD16B080BD000080B58EB008
:1059000000200D900C900B900A9009900890079041
:1059100006900590049003900290019040F2F001EF
:10592000C2F200014FF080420A6053224A60886050
:1059300040F2E732CA60086188610846FDF7D2F993
:10594000002803D0FFE7FBF7DBFEFFE74FF48050B2
:105950000A9040F2F000C2F200000AA9FDF7EAFA4C
:10596000002803D0FFE7FBF7CBFEFFE740F2F00093
:10597000C2F20000FDF710FE002803D0FFE7FBF79E
:10598000BFFEFFE700200890099040F2F000C2F24D
:10599000000008A9FDF756F9002803D0FFE7FBF740
:1059A000AFFEFFE760200190002002900390059079
:1059B00040F2F001C2F2000101AA0090084611462F
:1059C000009AFDF739FD002803D0FFE7FBF798FEAA
:1059D000FFE740F2F000C2F20000FDF7C5FC0EB098
:1059E00080BD000080B586B0002005900490039033
:1059F00002900190009040F23011C2F2000140F696
:105A00000042C4F200020A6053224A6088604FF6E6
:105A1000FF72CA60086188610846FDF763F90028D3
:105A200003D0FFE7FBF76CFEFFE74FF480500290D6
:105A300040F23010C2F2000002A9FDF77BFA002804
:105A400003D0FFE7FBF75CFEFFE70020009001902A
:105A500040F23010C2F200006946FDF7F3F800286A
:105A600003D0FFE7FBF74CFEFFE706B080BD000068
:105A700080B540F23020C2F2000044F60041C4F28A
:105A8000000101604FF4E131416000218160C1609B
:105A900001610C2242618161C161FDF7F5FF0028BF
:105AA00003D0FFE7FBF72CFEFFE780BD80B540F297
:105AB0007010C2F2000041F20001C4F20101016065
:105AC0004FF4E131416000218160C16001610C222D
:105AD00042618161C161FDF7D7FF002803D0FFE774
